:020000022000DC
:10600000000004204D6604008D6604008F660400C5
:106010009166040093660400956604000000000089
:10602000000000000000000000000000C96504003E
:106030009966040000000000E96504009D66040004
:10604000A16804009F6604009F6604009F66040028
:106050009F6604009F660400653F04009F6604007D
:106060009F6604009F6604009F6604009F6604000C
:106070009F6604009F6604009F6604009F660400FC
:106080009F6604004D6304009F6604009F66040041
:106090009F6604009F66040049F803009F660400A1
:1060A0009F6604009F6604009F6604009F660400CC
:1060B0009F6604009F6604000000000000000000CE
:1060C0009F6604009F6604009F660400D5E20400FA
:1060D0009F6604009F6604009F660400F16B020047
:1060E0009F6604009F6604009F6604000000000095
:1060F000000000009F660400000000004DE3040063
:10610000000000000000000000000000000000008F
:10611000000000000000000000000000000000007F
:10612000000000000000000000000000000000006F
:10613000000000000000000000000000000000005F
:10614000000000000000000000000000000000004F
:10615000000000000000000000000000000000003F
:10616000000000000000000000000000000000002F
:10617000000000000000000000000000000000001F
:10618000000000000000000000000000000000000F
:1061900000000000000000000000000000000000FF
:1061A00000000000000000000000000000000000EF
:1061B00000000000000000000000000000000000DF
:1061C00000000000000000000000000000000000CF
:1061D00000000000000000000000000000000000BF
:1061E00000000000000000000000000000000000AF
:1061F000000000000000000000000000000000009F
:10620000F1EE103A43F08073E1EE103A704700BFB0
:1062100010B5054C237833B9044B13B10448AFF3E0
:1062200000800123237010BD506600200000000094
:10623000C4B4050008B5034B1BB103490348AFF3D1
:10624000008008BD0000000054660020C4B40500B2
:10625000154B002B08BF134B9D46A3F5803A002138
:106260008B460F461348144A121A2DF002FC0F4BAE
:10627000002B00D098470E4B002B00D098470020F1
:10628000002104000D000D48002802D00C48AFF397
:1062900000802DF071FB2000290020F029FA2DF05C
:1062A00045FB00BF000008000000042000000000C3
:1062B0000000000050660020A0BC0020000000008C
:1062C000000000000146014800F0EEB98C66002095
:1062D00038B500F02FF940B10024054620460134BE
:1062E00000F0B4FDE0B28542F9D838BD70B592B087
:1062F0001D460C46164601A8422200212DF0B9FB8E
:10630000412D02D8002012B070BD621CD2B202230F
:106310008DF806408DF80E408DF826408DF81E2031
:106320008DF827208DF8312040F20945052240F2F2
:1063300001248DF807308DF808308DF809308DF87C
:1063400012308DF821308DF822308DF833308DF8F1
:106350003B30ADF80C502423ADF810408DF81520DB
:106360008DF823201B4D8DF81630042201248DF862
:1063700020308DF8243006958DF81C408DF81F20B4
:106380008DF830203046144D0A9540F60836082323
:106390004FF411640A22ADF804608DF82C30ADF88A
:1063A0002E4040238DF8342001A9062640F20755DF
:1063B0000A4C8DF825604222ADF838508DF83C30FB
:1063C0008DF84330CDF83F402DF02FFB422012B026
:1063D00070BD00BF2001052407058003070580026A
:1063E000A0F11000FFF782BF007EFF2806D010B595
:1063F00000F08EFC044618B1204610BD0020704706
:1064000020F0A2FB204610BD007EFF280ED000B574
:1064100083B00DF1070100F0BFFC20B19DF807002B
:1064200003B05DF804FB4FF0FF30F9E74FF0FF30A9
:10643000704700BF007EFF2811D000B583B0012255
:106440000DF1070100F070FC20B94FF0FF3003B0F0
:106450005DF804FB9DF8070003B05DF804FB4FF006
:10646000FF307047007EFF2801D000F0EFBC70477E
:10647000007EFF2801D000F02FBD0020704700BF34
:10648000F8B50646007EFF281CD017465AB10D46C7
:10649000144600F017FC2946224680B1307E00F0F9
:1064A00085FC241A01D13846F8BD054420F04CFB88
:1064B000307E00F007FC294622460028EED13F1B23
:1064C0003846F1E70020F8BD70B50368184A5B68EC
:1064D00082B093428DF8071024D10546007EFF2834
:1064E0001DD000F0EFFB0DF10706012431462246D6
:1064F00088B1287E00F05AFC241A02D1012002B093
:1065000070BD064420F020FB287E00F0DBFB314606
:1065100022460028EDD1C4F1010002B070BD002078
:1065200002B070BD01220DF10701984702B070BDA5
:1065300081640200014B1878704700BF8866002014
:10654000037EFF2B00D07047064B1A78002AFAD141
:10655000054902764161012200F1100103481A70D9
:1065600000F042B888660020386B05008C66002079
:10657000007EFF2807D000B583B000F0A3FB20B158
:1065800003B05DF804FB00207047019020F0DCFAB6
:10659000019803B05DF804FB01B900B1704700B584
:1065A00083B0694600F0A4FB009BB3F5966F02D060
:1065B00003B05DF804FB00F031FBF9E730B4084BA1
:1065C000084AFF2002F108054FF47A7400213032A6
:1065D00018761D609C601A615960596130BC704723
:1065E0006C660020486B0500F8B5B0F818214469C6
:1065F000B0F81A31054608680E469B1A144407681D
:1066000095F81C119BB222463046B84750B3221869
:10661000944229D2766806E0052B32D023780BB35A
:106620001C44A24220D96378042BF5D1E378002BD7
:10663000F4D195F81C11013185F81C11002EEDD014
:1066400095F840110729E9D801F1480745F8276076
:10665000217295F84011013185F840111E462378CA
:10666000002BDDD10020F8BDB5F818216B6910446E
:1066700080B2A5F81801588095F81C211A710120E4
:10668000F8BD94F90230002B08DB95F81E31591C37
:1066900085F81E11A1780B43A370BFE795F81D3153
:1066A000591C85F81D11F5E72DE9F0472A4DDFF853
:1066B000B490DFF8B4A0AC4604468846BCE80F00AE
:1066C00088B003AF0FC703AE0FCE05F1140E2546F9
:1066D0000FC59EE80700DCF800303B806B4636684B
:1066E0002E8003C36B4603CB04F1180700234FF43D
:1066F000807E012640F2094CA06184F82020676169
:1067000040F2EF22154FE1610420C4F818914FF4D4
:10671000E131A4F81CE1C4F82C31C4F83031C4F8DC
:106720003431C4F83831C4F83C31C4F820C184F89D
:106730004001A28084F81E61A671C4F824A1C4F8A7
:1067400028710748FFF7FCFE404600F055FA304636
:1067500008B0BDE8F08700BF7C6B0500B86B050092
:106760006C66002009000001AC6B05002DE9F04FBC
:1067700005468BB0002900F0E480032930D090F862
:1067800040318B4240F2EE8001F14803774F50F8E0
:1067900023400021084605F5A276235C04EB000C9B
:1067A000B3B103F14002D2B2012A0BD9F42B09D8BC
:1067B0001A064CD44FF00108A3F55842B2F5006F09
:1067C00080F09A80013004EB000C235C002BE8D1B0
:1067D000CBB201335B0043F4407305F5A17C30E09C
:1067E00002A800F01DFA05F5A17C019010B3431E2C
:1067F000DBB205F5A37B5E4F0DF1080A0BEB830BB3
:10680000E64606AE97E80F001AF8018B86E80F00FF
:1068100008F00F090AACA14404EB181819F8109CF1
:1068200018F8103CAEF80490AEF802300EF1040EE9
:10683000DE45E7D1019B5B00DBB201335B0043F433
:106840004073A5F8423160460BB0BDE8F08F03F00D
:10685000E002C02A5ED003F0F002E02A7AD003F012
:10686000F802F02AAED103F007024FF004089CF8BA
:10687000013003F0C00EBEF1800FA3D19CF802E0FE
:106880000EF0C00903F03F03B9F1800F43EA821311
:1068900098D10EF03F0EB8F1030F4EEA831332D0B9
:1068A0009CF8032002F0C00CBCF1800F8AD102F0EA
:1068B0003F0242EA8313A3F58032BA4282D8A3F59D
:1068C000584CBCF5006FFFF47DAFB3F5803F00F18D
:1068D000040012D31E293FF77BAF4B004FEA922CE6
:1068E0003344C2F30902ACF5205CA2F5105226F83D
:1068F00011C05A80023150E7404420292FD026F899
:106900001130013149E7A3F50062B2F5784FFFF489
:1069100053AF57E79CF8012002F0C00CBCF1800F88
:1069200003F01F037FF44EAF02F03F0242EA8313ED
:10693000A3F18002B2F5F06FBFF444AF4FF002084C
:106940003AE7D0F82031A0F8443100F5A17C4FF4AB
:10695000417376E703F00F024FF0030887E740F238
:1069600042333AE74FF0000C6DE700BFFFFF0F0026
:106970009C6B0500004870478C660020014B5869ED
:10698000704700BF8C6600200A4601460148FFF7A9
:10699000EDBE00BF8C660020024B186800B1006994
:1069A000704700BF1068002030B40848BDF8085098
:1069B000046844B1646934B10846A44611461A46D5
:1069C0002B4630BC6047002030BC70471068002068
:1069D00030B40848BDF80850046844B1A46934B123
:1069E0000846A44611461A462B4630BC604730BCC8
:1069F000704700BF1068002000207047024B1868E5
:106A000008B190F850007047146800202DE9F04755
:106A1000244C2468002C3FD04FEAC0091E4609EBE5
:106A2000000304EB83031746D3F818A088460546F5
:106A3000BAF1000F32D050462DF036FF4D4404EB32
:106A40008504D4E90754DFF864C0174B08280246D0
:106A5000514628BF08224046002D08BF6546002C3D
:106A600008BF1C462CF0E1FF28462DF01DFF102822
:106A70000246294628BF102238462CF0D6FF204671
:106A80002DF012FF042802462146304628BF04227A
:106A9000BDE8F0472CF0C9BFBDE8F087DFF810A0D3
:106AA0000820CBE714680020EC6B0500DC6B0500C8
:106AB000D06B0500F8B50B4F3B6883B1C5002E18AD
:106AC00003EB8606044672691AB190473B6886F864
:106AD0002A002C4403EB840393F82A00F8BD1846DF
:106AE000F8BD00BF14680020054B1B683BB100EBEC
:106AF000C00003EB8003586A1B8D08601380704749
:106B0000146800200A781E2A01D10020704710B5B1
:106B100020221C460521002300F0AEFF204610BDB8
:106B200070B40A4C039A24685CB100EBC00504EB16
:106B30008504A4682CB10E4630461946234670BC25
:106B400018474FF0FF3070BC704700BF146800203A
:106B500070B40A4C039A24685CB100EBC00504EBE6
:106B60008504E4682CB10E4630461946234670BCB5
:106B700018474FF0FF3070BC704700BF146800200A
:106B8000054B1B6833B100EBC00003EB80031B69AE
:106B900003B11847704700BF1468002000B5114BBF
:106BA000402283B083F8272304F062F84FF080433B
:106BB00002A80024D3F8385400F8084D1FF0F2FD65
:106BC00002A8094B40F8043D1FF03CFE1FF04CFEAC
:106BD000EB0702D401F0F2FEFCE7204603F08CFE46
:106BE000F8E700BF00E100E0ED6B020003F084BEB7
:106BF000002003F0D9BA00BF00B5002383B0032200
:106C0000CDE9002303490448C8221EF0C9FA03B0A5
:106C10005DF804FBF06B05009D6B020020F058BB93
:106C20004FF08052536E1BBA0360136E1BBA436061
:106C30000820704700487047F86B050070B51F4C7E
:106C40002368E3B1C9B91578C5F34115012D11D0F9
:106C5000022D16D15478012C25D0022C0DD1938809
:106C6000072B0ED1164C114623892246BDE87040F1
:106C700002F06ABE5178222905D0012070BD184665
:106C800070BD084670BD11465288003218BF0122FF
:106C90001A7602F041FE2268136A002BEDD0107EB6
:106CA0009847284670BDDC6934B1114623782246E6
:106CB000BDE8704002F048BE204670BD1868002054
:106CC0000460002010B5044601F0DAFD08B9002088
:106CD00010BD01F0DDFD0028F9D1044B4FF45A72CC
:106CE00002FB0434207900F0010010BD1C68002074
:106CF000064A4FF45A7303FB002050F8063F0B601E
:106D0000838882798A718B80704700BF1C6800205D
:106D100008B5044A4FF45A7303FB0020103001F009
:106D200027FC08BD1C6800202DE9F0414FF45A757E
:106D300005FB00F5174E05F11004344492B22046CD
:106D400001F040FC0746204601F02AFC3F2802D80B
:106D50003846BDE8F08106EB0508002098F80310DE
:106D600002F016FD0028F3D0204601F019FC3F2860
:106D700005D898F80310002002F03CFDE8E705F57F
:106D80003A72324498F803104023002002F05EFD6E
:106D9000DEE700BF1C680020034A4FF45A7303FB70
:106DA0000020103001F07CBC1C6800202DE9F84365
:106DB0004FF45A7505FB00F5224E05F12C043444BE
:106DC00092B2204601F0AAFC0746204601F0D0FB13
:106DD0003F2802D83846BDE8F88301F051FD00286D
:106DE000F8D001F055FD80460028F3D1204601F08F
:106DF000BFFB0028EED006EB0509404699F80210CB
:106E000002F0C6FC0028E5D005F54A753544204659
:106E10002946402201F0D6FB034668B12A4699F87C
:106E20000210404602F012FD0028D3D1064B1B6829
:106E3000DB07CFD500BECDE799F8021002F0DAFCEF
:106E4000C8E700BF1C680020F0ED00E02DE9F0412C
:106E5000054601F015FD10B90020BDE8F08101F0F4
:106E600017FD06460028F7D14FF45A7404FB05F4C9
:106E7000174F04F12C053D44284601F079FB00280A
:106E8000EAD007EB0408304698F8021002F080FCC4
:106E90000028E1D004F54A742744284639464022A8
:106EA00001F090FB044668B13A4698F8021030466B
:106EB000234602F0CBFC48B9064B1B68DB07CBD559
:106EC00000BECAE798F8021002F094FC2046C4E71E
:106ED0001C680020F0ED00E008B5044A4FF45A7336
:106EE00003FB00202C3001F05BFB08BD1C68002078
:106EF000F0B51B4C83B000214FF45A722046012597
:106F00000E462CF0B6FDFF234FF4424204F1480137
:106F10006371E2802B460827009604F110004FF4BD
:106F200080722773258101F0E7FA2B464FF48072B7
:106F300004F5A471009504F12C0001F0DDFA04F5CC
:106F4000127128461DF042FB04F52671A062284606
:106F500066621DF03BFBC4E9100603B0F0BD00BF44
:106F60001C68002010B5094B002203F12C0403F12A
:106F700010001A601A7101F03BFC204601F038FC49
:106F800020460121BDE8104001F05ABC1C680020D9
:106F90002DE9F0414B79022B82B004D00025284620
:106FA00002B0BDE8F0818B79022BF7D1304EB37877
:106FB0002BB1304B1B68DB07F0D500BEEEE78B78BA
:106FC00033700C780C4407466378242B4FF0090586
:106FD0000BD1082A02D822E0AA4220D323781C44ED
:106FE0001D446378242BADB2F6D0052B2CD0042B96
:106FF00015D163790A2B12D11F4A94F800800192AF
:10700000022301320092384604EB08011A4602F0CE
:1070100023FB0028CDD00E3518FA85F5ADB2174800
:1070200001F0BEFA3F28BAD9F178002002F0B0FB97
:107030000028B4D0114801F0B3FA3F28F17811D8F4
:10704000002002F0D7FBAAE72146384602F080FB79
:107050000028AED0A378737023781C441D44ADB2D1
:107060006378C4E7064A4023002002F0EFFB96E76E
:107070001C680020F0ED00E01E6800202C68002055
:10708000046B002038B5137803F06003202B01D087
:10709000002038BD254C938825789D42F8D153783F
:1070A000203B032BF4D8DFE803F0271E070281B34F
:1070B000022933D0012038BD59B30229FAD15588AD
:1070C0001B482571E94301F0010101F0B9FB194B9F
:1070D000002BEFD0C5F3400205F001010020FFF7BF
:1070E0005BFA012038BD0029E4D111460723124A7A
:1070F00002F02AFC012038BD0029F6D00229D9D19E
:107100000E4B002BD6D00C490020AFF3008001209D
:1071100038BD114602F000FC012038BD084B002BA1
:10712000C8D051880020AFF30080C3E71C6800205E
:1071300048680020996502002268002000000000D5
:10714000000000002DE9F047574CE2788A420D46D6
:1071500007461E4656D19AB204F53A7104F1100062
:1071600001F0DCFA514BD3B16379FF2B17D0B6B1E4
:1071700004F2E72808EB060AA8F2D72902E0C24584
:107180000DD0637918F8012F9A42F8D1484601F0E2
:10719000FFF90028F3D16179AFF30080EFE7444BAA
:1071A00023B1444801F0F4F900285DD0414801F0D2
:1071B000F7F93F285BD8A378AB4203D001252846D6
:1071C000BDE8F0873C4B13B10020AFF3008001F025
:1071D00057FB20BB394801F0CBF90028EED1002E37
:1071E000ECD016F03F06E9D1A178384602F0D0FA8B
:1071F00005460028E2D0A17838463346324602F0F0
:1072000025FBDCE7A3788B42DCD02D4B1D6815F005
:107210000105D4D000BE00252846BDE8F08701F066
:1072200037FB05460028D5D1244801F0A1F90028F4
:10723000D0D0A178284602F0ABFA0028CAD0214964
:107240004022A1F53F7001F0BDF9034638B328464E
:107250001C4AA17802F0FAFA0028AFD1184B1B683B
:10726000DB07B7D500BEB5E71BF0E4FC9EE7E1788D
:10727000002002F08DFA00289DD00E4801F090F910
:107280003F2804D8E178002002F0B4FA93E74023C5
:107290000D4AE178002002F0D9FAA3788CE7A178B2
:1072A00002F0A8FA96E700BF1C680020000000006A
:1072B000352C04002C6800200000000048680020E5
:1072C000F0ED00E0446B0020046B00208C220021D4
:1072D00001482CF0CEBB00BF846B00208C22002123
:1072E00001482CF0C6BB00BF846B00202DE9F041A3
:1072F0004B79032B82B004D00024204602B0BDE8B5
:10730000F0810D79C5EBC5041234A4B2944205D9BD
:10731000224B1B68DA07EFD500BEEDE7204F7A78E5
:10732000002AF5D191F800E001EB0E0C9CF80180E9
:10733000B8F1210FECD1C7F888C0884611F80E10BB
:1073400007F1010E614407F1020C2A46CDE900CE97
:10735000064602F081F90028DAD098F80630B978AC
:10736000012B04BF98F80730FB700122D7F8883052
:107370003A7198F80220B3F807303A70FB80002980
:10738000BBD030464023074A02F060FA0028B4D14F
:10739000024B1B68DB07B0D500BEAEE7F0ED00E0A6
:1073A000846B0020CC6B00202DE9F041137803F0B2
:1073B0001F04012C82B003D0002002B0BDE8F08190
:1073C000DFF8D881968898F80070F6B2B742F3D10A
:1073D00013F0600305460F46164617D100293BD12E
:1073E0005378062BE8D153881B0A212B00F090809C
:1073F000222BE1D10846FFF7CFFAB8F80630024653
:107400003146284602F0A0FA2046D6E7202BD3D1F9
:107410005378013B0A2BCFD801A252F823F000BFCA
:10742000C9740200B77402004D740200B9730200FF
:10743000B9730200B9730200B9730200B973020094
:10744000A17402007B7402005D74020021B9314610
:107450000123494A02F078FA0120AEE7D1B10229AE
:10746000FAD17188454BC9B288F80410002BF3D0CB
:107470000020AFF3008001209FE70029ECD1718844
:107480003F4B090A88F8051023B13846AFF3008056
:10749000002891D03146284602F03EFA01208CE7C0
:1074A000002941D1F388402B86D83146354A02F075
:1074B0004BFA012081E70029CED131460123324A1F
:1074C00002F042FA012078E70029C5D1F4887388D8
:1074D000402C204628BF402013F0FF014FEA132222
:1074E0003CD0012C3AD90138284B88F8081080B2DA
:1074F000012700900020FFF757FA3B189BB27BBB97
:10750000234A1268D2077FF557AF00BE184654E7EA
:10751000D8F88820002A3FF44FAF1378314602B0E4
:10752000BDE8F04102F010BA022995D1F4887388C1
:10753000402C204628BF402013F0FF014FEA1322C1
:1075400005D0012C03D998F848308B420FD00D4B51
:1075500000900020FFF73CFA01202EE70D4BC8E712
:10756000314628460B4A02F0EFF9012025E70138A1
:1075700080B2094BECE700BF886B002000000000E0
:1075800000000000CC6B0020896B00208D6B002078
:10759000F0ED00E08C6B0020CD6B0020846B0020B0
:1075A000F0B51C4CA57866788D4283B00BD1B542FE
:1075B00016D1194A22B1DAB218490020AFF300807F
:1075C000012003B0F0BDB142F3D0154B1B68DB07BF
:1075D00003D500BE002003B0F0BD002003B0F0BD15
:1075E00000229BB2114607460093104604F148035F
:1075F000FFF7EEF93846402304F14802A17802F083
:1076000025F90028DCD1064B1B68DA07E5D500BE5A
:10761000D7E700BF846B0020000000008C6B0020C7
:10762000F0ED00E030B5154C83B000210D464FF46D
:107630001A7220462CF01DFA04F1480104F11000E2
:1076400000950123802200F057FF0123802204F1DE
:10765000C801009504F12C0000F04EFF04F5A47160
:1076600001201CF0B3FF04F5CC71A062012065621B
:107670001CF0ACFFC4E9100503B030BDF8B9002020
:1076800010B5084C002304F11000C4E90033C4E92C
:10769000023301F0ADF804F12C00BDE8104001F018
:1076A000A7B800BFF8B900202DE9F0474B79012BAE
:1076B00003D000242046BDE8F0878B79012BF8D158
:1076C000CB79002BF5D10B78CD1899B26C78242C9E
:1076D0000BD1914202D9ECE78A42EAD32B781D44C0
:1076E0000B446C78242C99B2F6D0042CE1D16B7940
:1076F000012BDED1AB79032BDBD1EB79002BD8D179
:10770000DFF8B88098F8013013B998F802702FB1FB
:10771000274B1B68DB07CCD500BECAE7AB7888F8DF
:1077200000302E7892462A798B1981469CB22E44DD
:1077300032B91FE0337897421C44A4B21E4419D2D8
:10774000A24517D37378052BF4D13146484601F092
:10775000FFFF0028DCD0B378DA0914BF88F80130C5
:1077600088F8023033782A7901371C44FFB2A4B27A
:107770001E44DFE70F4800F013FF3F289AD998F81E
:107780000210002002F004F8002893D0094800F00D
:1077900007FF3F2898F8021003D8002002F02AF8CB
:1077A00088E7054A4023002002F050F882E700BF36
:1077B000F0ED00E008BA0020E0BB0020F8B900209E
:1077C00000207047F8B53D4CA2788A421F4613D17D
:1077D0009AB204F5F47104F1100000F09FFF384BE9
:1077E00013B10020AFF30080364800F0D9FE3F28E7
:1077F0002CD801252846F8BD63788B4208D0324B3F
:107800001D6815F00105F5D000BE00252846F8BD1D
:10781000064604F12C0000F0ABFE40BB2B4800F004
:10782000A7FE0028E5D1002FE3D017F03F07E0D1F5
:107830006178304601F0ACFF05460028D9D0617868
:1078400030463B463A4602F001F8D3E7A1780020E3
:1078500001F09EFF05460028CBD01A4800F0A0FE9C
:107860003F28A17820D8002001F0C4FFC2E761784A
:10787000002001F08DFF0028D0D0402204F50A71CD
:1078800004F12C0000F09EFE034698B104F50A7244
:107890006178002001F0DAFF0028AAD10A4B1B68AA
:1078A000DB07BBD500BEB9E7094A4023002001F041
:1078B000CDFF9FE7617801F09DFFAFE7F8B90020A9
:1078C0000000000008BA0020F0ED00E024BA00201B
:1078D000E0BB002030B4114B9C689A6B93F83C508D
:1078E00083F82C10A21A022183F830109A6225B96D
:1078F00042F2050183F83E50998744B13AB11A7BB0
:10790000D20906D193F82F1030BC01F0DBBF30BC98
:10791000704793F82E1030BC01F0D4BF106E0020D9
:1079200038B5214B214C05461BB1607BAFF300807D
:10793000A8B1A06BA36894F82F101D4A1B1AB3F5C9
:10794000007F28BF4FF4007328469BB201F07EFFF2
:1079500020B9184B1B68DB0700D500BE38BDA268F4
:10796000A36B84F83E0042F20771D31A0120A1876D
:107970000221A36284F82C0084F83010002AEDD094
:10798000002BEBD0237BDB0906D194F82F1028467F
:10799000BDE8384001F096BF94F82E102846BDE8A7
:1079A000384001F08FBF00BF00000000106E0020C3
:1079B000106C0020F0ED00E070B52C4CE28AA3685A
:1079C00052BA92B282B0054612B1B3FBF2F292B251
:1079D000A66BD4F81110607B9B1BB3F5007F28BF0A
:1079E0004FF4007309BA0093B6FBF2F302FB136283
:1079F00019441F4BFFF794F8031E16DB94F82E1062
:107A00000CD09BB228461A4A01F020FF58B9194BF6
:107A10001B68DB0707D500BE02B070BD0093284687
:107A20001A4601F0E5FD02B070BDA268A36B43F2F7
:107A300003300021D31AA08784F83E1001200221D0
:107A4000A36284F82C0084F83010002AEBD0002BBD
:107A5000E9D0237BDB0914BF94F82E1094F82F1083
:107A6000284602B0BDE8704001F02CBF106E002027
:107A7000106C0020F0ED00E010B4054C012084F8FB
:107A80003C1084F83D2084F83E305DF8044B70478C
:107A9000106E00204022002101482BF0EABF00BFF9
:107AA000106E00204022002101482BF0E2BF00BFF1
:107AB000106E00204B79082B01D0002070478B7985
:107AC000062BFAD1CB79502BF7D1162A06D81C4BAE
:107AD0001B68D907F1D500BE0020704770B5194D5D
:107AE0008B7885F82D300B7882B005F12F0205F1E7
:107AF0002E0619440223CDE900261A46044601F059
:107B0000ABFD48B90E4B1B68DA0702D500BE02B0C8
:107B100070BD002002B070BD20461F2300242A46FD
:107B200095F82F1085F8304001F090FE30B9044BE5
:107B30001B68DB0702D500BE1720E8E71720E6E741
:107B4000F0ED00E0106E002079B970B50B461178A9
:107B500001F07F04022C84B0054608D001F06001DA
:107B6000202938D0002004B070BD0120704754781F
:107B7000012CF3D151880029F4D13E4E918896F81A
:107B80003030042BC9B270D096F82E208A425AD0D9
:107B900096F82F408C4253D1002B51D1214601F051
:107BA00083FE00284CD12146284601F0A7FE00287C
:107BB00046D1002386F83030284696F82F102D4AFB
:107BC0001F2301F043FE00283AD12B4B1B68DB0733
:107BD000C8D500BEC7E75178FE2916D0FF29C1D10C
:107BE0005388002BBED1D488A3B2002BBAD1214E2A
:107BF0001146284686F83030C6E90D33B48786F83A
:107C00003E3001F089FE0120ADE751880029A9D15D
:107C1000D1880129A6D119488DF80F1038B10192E9
:107C2000FEF7ECFE019A00289CD0431EDBB204ACA8
:107C3000114604F8013D28462246012301F084FE46
:107C4000012004B070BD022BFAD1B46BB3681B1BCA
:107C500011460324B36206F120020D2386F830405A
:107C600001F0F4FD0028B0D0EAE701F02BFE204639
:107C700079E700BF106E0020F0ED00E0FD69020022
:107C8000F0B5A24C94F83050012D8FB01E46074637
:107C900044D02AD3032D04D0022D5FD001200FB091
:107CA000F0BD94F82E308B42F8D10D2EF6D1E37B47
:107CB000282B00F022812A2B40F01581944B13B120
:107CC000607BFEF75DFF002084F830001F238F4AA1
:107CD00094F82F10384601F0B9FD002872D18D4B71
:107CE0001B68DA0771D500BED9E794F82F208A42C5
:107CF000D4D11F2B03D1884B2168994267D004232C
:107D000094F82E1084F83030384601F0DBFD384608
:107D100094F82F1001F0D6FD0020C0E7E27BA36BA2
:107D2000282A12D02A2A00F08A80217B626B1E4406
:107D3000CB09A66377D0B2420DD9764B1B68DB071F
:107D400040D500BE94F83050A6E7626B1E449642C0
:107D5000A663C0F0B880022384F8303094F82E1067
:107D6000384601F0CBFD002898D1A368A26B94F8A7
:107D70002E10934202D9207BC00950D19A1A0325B4
:107D8000A26238460D23654A84F8305001F05EFD4A
:107D90000028A4D082E704AA05A9FEF7A5FE059B4A
:107DA00023B1BDF81020002A40F0928294F83C30B4
:107DB00023B940F2024284F83E30A28701213846BE
:107DC000FFF788FD94F8305066E7002067E7544BD2
:107DD000E57B6168236200236162A362012184F86C
:107DE0002C30A363282DA36884F83010636300F05F
:107DF000C0802A2D53D0002B00F01481217BC909AB
:107E000040F01081B3F5007F00F22B8211469BB247
:107E1000444A01F01BFD00283FF461AFD2E7384629
:107E200001F050FD3AE793B2607B3E4A04F10F0146
:107E3000FEF768FE00287BDBA66B626B7BE7E28ABD
:107E400052BA92B21AB1A168B1FBF2F292B2D4F86E
:107E50001110344DB3FBF2FC09BA02FB1C32607BFB
:107E6000009661442B46FEF773FE0028C0F2B680F0
:107E700086422DD9361A38B1A36B291803443246ED
:107E80002846A3632BF0DCFD002394F82F10009309
:107E90003246384601F0ACFB94F83050FCE6E18AFB
:107EA00049BA89B2002B68D0207BC00940F08B8092
:107EB000002900F0EC81B3FBF1F1002900F004820D
:107EC000282D38460CD1FFF777FD94F83050E3E6C3
:107ED000D4E90D231E449642A663BFF43CAF384656
:107EE000FFF71EFD6EE7104B002B3FF4ECAE04F1E4
:107EF0000F01607BAFF30080E5E60C4B002B3FF4F5
:107F0000E2AE607BAFF30080DDE600BF106E0020C4
:107F1000816B0200F0ED00E055534243306E0020CB
:107F200055534253106C0020000000000000000078
:107F3000A368A66B94F83C1084F82C509A1B02207E
:107F4000A26284F8300021B942F2050084F83E10A4
:107F5000A087002B3FF471AF002A3FF46EAF237B64
:107F6000DB0940F0A98194F82F10384601F0AAFCF3
:107F700062E7E18A49BA89B20BBB00293FF4EBAE54
:107F800094F83C00A362022184F82C1084F830108D
:107F900000287FF4E3AE42F205000021A08784F8B8
:107FA0003E10002B3FF4DAAE237BDB0940F07C81EE
:107FB0001146384601F086FC94F830506CE6207B80
:107FC000C0097FF475AF94F83C00A362022184F8E5
:107FD0002C1084F830100028DDD0E5E7A36BA268F0
:107FE0001E4443F203300021931BA08784F83E1007
:107FF00001200221A663A36284F82C0084F83010CB
:10800000002A3FF4ABAE002B3FF4A8AE237BDB0984
:1080100040F04A8194F82F10384601F053FC94F850
:10802000305039E6607B252D00F2228101A252F802
:1080300025F000BF518202007182020071820200AD
:10804000FD810200718202007182020071820200D1
:10805000718202007182020071820200718202004C
:10806000718202007182020071820200718202003C
:10807000718202007182020071820200B7810200E7
:10808000718202007182020071820200718202001C
:10809000718202007182020071820200718102000D
:1080A0003B81020071820200718202007182020033
:1080B00071820200718202007182020071820200EC
:1080C000CD80020071820200977D020005AD002381
:1080D0000DF10E0204A96B600593AB60FEF704FD81
:1080E000049A002A3FF462AEBDF80E30002B3FF434
:1080F0005DAE12BA5BBA08200221ADF81E300692BE
:108100008DF817008DF81C1095E80700744B83E874
:1081100007000C20A368002B00F0A380984228BF22
:10812000184683B260636E4A94F82E10384601F008
:108130008DFB00283FF4D3AD44E66A4B002B00F0E2
:108140008C80E17CC1F3400301F001020909AFF327
:108150000080002840F0818094F83C30002B7FF4B0
:108160002DAE40F202420023A28784F83E3025E67D
:108170009DF816305C49002203F0800362F3C713B8
:108180008DF8163003238DF815208DF817208DF803
:108190001430002900F09A80AFF300809DF816306B
:1081A0004F4A80F0010060F3C7138DF81630059B2D
:1081B00013600420AEE74FF0203302250022CDE902
:1081C000052207A909AA08938026079309930D930E
:1081D000CDE90A330C938DF816500DAB8DF817507E
:1081E00005AD8DF81560FEF711FC0FCD3C4E0FC6A6
:1081F0000FCD0FC62B68336024208BE794F83C200A
:1082000094F83D0094F83E10354E4FF0000C4FF0BE
:108210000003CDE905CCCDE907CC62F303038DF86B
:108220001630F0220A23ADF824C08DF820008DF816
:1082300021108DF814208DF81B3005AD0FCD0FC621
:108240002B68A4F83CC084F83EC03380122061E75C
:10825000FEF730FC00283FF47FAFA368002B3FF40B
:108260007AAD01213846FFF735FB94F8305013E51D
:1082700094F83C20002A7FF4A1AD9BB2184A1B4918
:10828000FEF740FC0028FFF699ADE6D042E7012159
:1082900094F83C0084F82C100221A36284F830107A
:1082A00000287FF47EAE76E694F82E10384601F072
:1082B00009FB94F83050EFE494F82E10384601F0A2
:1082C00001FBD4E90D2636E50221E1E7012065E74F
:1082D000013B03491BBA12BAC1E90032082019E771
:1082E000106C002000000000000000001F6E002045
:1082F00030B5154C83B000210D464FF4EE72204688
:108300002BF0B7FB04F13C01201D00950123402216
:1083100000F0F2F80123402204F17C01009504F101
:10832000200000F0E9F804F1BC0101201CF04EF936
:1083300004F58671E0610120A5611CF047F9C4E9EC
:108340000D0503B030BD00BF506E002010B5064CC7
:108350002046002340F8043B00F04AFA04F12000D4
:10836000BDE8104000F044BA506E00204B79FF2B5E
:1083700001D0002070472DE9F041324D6B7882B07A
:108380000BB9AB781BB1002002B0BDE8F0810C78CE
:108390008B782B70074608790E460C4418B3637827
:1083A000052B0AD0A3189C4202D306E0A34204D9AD
:1083B00021780C4461780529F8D1DFF89480CDF854
:1083C000048008F101030246009321460223384647
:1083D00001F042F9A0B13379A978C3EBC3031C447F
:1083E00031B9697891B9A01B80B202B0BDE8F081C3
:1083F00008F25B123846402301F028FA0028F0D139
:10840000114B1B68DA07BED500BEBDE7002001F0A6
:108410004BFA07460028E6D10C494022A1F5BE7070
:1084200000F0D0F80028DED003466978074A3846C5
:1084300001F00CFA0028D6D1034B1B68DB07D2D51C
:1084400000BED0E7506E0020F0ED00E0EC6F0020A1
:10845000516E002038B5234CA5788D420AD0637840
:108460008B424FF0000004D101F01EFA054600B324
:10847000012038BD9AB204F5AE71201D00F04EF90E
:10848000194B13B10020AFF30080A178002001F058
:108490000BFA05460028EBD1144800F081F83F287C
:1084A000E6D9A178124A2846402301F0CFF90120ED
:1084B00038BD402204F5CE7104F1200000F082F8AE
:1084C0000028D5D0034604F5CE722846617801F025
:1084D000BDF90028CCD1074B1B68DB07C8D500BE0F
:1084E000C6E700BF506E002000000000546E002060
:1084F000AC6F0020F0ED00E02DE9F041B2F5004F47
:108500009DF8188030D8044640691E460F4615462F
:1085100018B14FF0FF311CF0FFFAA06918B14FF00D
:10852000FF311CF0F9FA6A0092B260692760511EAF
:1085300000235242E381A580E68084F80880A1816F
:108540006281238218B11A4619461BF065FEA069A4
:1085500038B100231A4619461BF05EFE0120BDE823
:10856000F0810120BDE8F0810020BDE8F08100BF6E
:10857000C189028A89B292B28B1A91429BB202D20D
:1085800042899B1A9BB28088984228BF1846704740
:10859000C289038A9BB2981AB0FA80F040097047EA
:1085A000C189028A89B292B28B1A914210B49BB2ED
:1085B000848802D240891B1A9BB2E01A80B25DF80F
:1085C000044B70472DE9F843044680690E46174670
:1085D00018B14FF0FF311CF09FFAE089218A80B278
:1085E00089B2451A8842ADB202D26389ED1AADB2A2
:1085F000A388AB420AD2C21A984292B245D261898C
:10860000521A92B22282218A1D4689B2002D40D090
:10861000BD4228BF3D468B4203D8C91A89B28B425E
:10862000FBD95B1AB4F8068022689FB2BD4208FBF2
:10863000012124D917FB08F91FFA89F94A46304667
:108640002BF0F3F9EA1B12FB08F206EB090092B2D9
:1086500021682BF0EAF9228A92B253199BB29A420E
:1086600019D9628913449BB2A069238220B10023E7
:108670001A4619461BF0D0FD2846BDE8F88308FBD2
:1086800005F230462BF0D1F9E5E7A1899142B9D244
:10869000B5E7238A9BB2A2899A42E5D2E1E700BFFF
:1086A00070B5054680690E4618B14FF0FF311CF0D9
:1086B00033FAEC892B8AA4B29BB2E01A9C4280B2B6
:1086C00002D26A89801A80B2AA88824208D2A11A8C
:1086D000944289B21CD26889091A89B2298210464B
:1086E000D0B1934203D39B1A9BB29A42FBD9EA883A
:1086F0002968304602FB03112BF097F90124A86981
:1087000020B100231A4619461BF086FD204670BD95
:10871000A8898842E2D2DEE70446F0E72DE9F04777
:10872000154612B92846BDE8F087044640690F4651
:1087300018B14FF0FF311CF0EFF9E689227A218A57
:10874000A388B4F80680B6B289B282B39D4204D33E
:10875000ED1A08FB05770E461D469E42304603D3B0
:10876000C01A80B29842FBD21B1A22681FFA83F902
:108770004D4508FB002027D808FB05F239462BF0B1
:1087800054F9AB199BB29E4202D8A2899A4202D2F6
:10879000628913449BB26069E3810028C2D0002340
:1087A0001A4619461BF038FD2846BDE8F087721AB4
:1087B0008E4292B202D26189521A92B29A1A92B23F
:1087C000954228BF1546C8E719FB08FA1FFA8AFA2E
:1087D000524639462BF029F9A5EB090212FB08F2A3
:1087E00007EB0A0192B220682BF01FF9C9E700BF1E
:1087F00010B50446406918B14FF0FF311CF08CF9F8
:10880000A06918B14FF0FF311CF086F9A3886069A8
:108810005B009BB2591E5A420023E381A181628111
:10882000238218B11A4619461BF0F6FCA06920B144
:1088300000231A4619461BF0EFFC012010BD00BFB3
:1088400038B5044640690D4618B14FF0FF311CF0B1
:1088500063F9A06918B14FF0FF311CF05DF9606950
:10886000257220B100231A4619461BF0D5FCA069D9
:1088700020B100231A4619461BF0CEFC012038BD5A
:10888000024B5878003018BF0120704784700020D8
:10889000024B1878C0F38000704700BF847000203E
:1088A000014B1878704700BFBB7000202DE9F043E2
:1088B000374D2C7883B01CB1204603B0BDE8F0835F
:1088C00037222146064633482BF0D3F8324901209F
:1088D0001BF07CFE314B1860002832D030490B462B
:1088E0004A6833F8080B498800941BF0F1FB2D4BC4
:1088F000186030B32C4B6BB32C4FDFF8B880DFF827
:10890000B8903846AFF300803B78C8F800000DE01F
:10891000D8F8003004EB440203EBC2031B6898470D
:108920003B780134E4B21A1DA24225DBA342EFD802
:10893000E31ADBB2042B1CD803EB430309EBC3039C
:10894000ECE71B4B1B68DB07B6D500BE204603B027
:10895000BDE8F083DFF86080144F012458F8183B1D
:1089600098473A780432A24204F1010404DB062C51
:10897000F4D100231B68FFDE304601F05FF930467A
:1089800001F05EF9012420462C7003B0BDE8F083AD
:10899000BB7000208470002034700020BC70002068
:1089A000B8600020C070002000000000307000207F
:1089B000F0ED00E02C700020346C05002DE9F04F44
:1089C0008BB002F063F9002800F0DC81DFF85C83F3
:1089D000DFF85C93DFF850A3DFF858B3D8F8000055
:1089E0004FF0FF3207A91BF005FF002800F0CA81F5
:1089F0009DF81D30013B072B00F2B881DFE813F032
:108A00001F01FA00C800B900AD0040000E000800C8
:108A1000089B002BE2D009989847DFE79DF82010CB
:108A2000BC4B01F07F0403EB440303EBD11393F839
:108A300025006FF3000083F8250093F825006FF3FD
:108A4000820083F82500002C00F0CC81B24ADB7C48
:108A5000002A00F0C081B14A1278934280F0B981B7
:108A6000DBF8002003EB430312EBC30300F0858126
:108A70001C699DF82120099B9DF81C00A047ADE7CB
:108A8000A44C9DF81C60237843F00103237094F8F4
:108A900025306FF3000384F8253094F825306FF308
:108AA000820384F8253094F826306FF3000384F8AD
:108AB000263094F826306FF3820384F826300020A5
:108AC00000F0ACFF9DF8203003F06002602A00F057
:108AD0006A81402A00F06E8103F01F03012B00F031
:108AE000C581C0F0A281022B40F05D819DF8241069
:108AF00001F07F03082B00F2568158002318CF099C
:108B00003B44854DDB7C002D00F0F481834D2D78B6
:108B1000AB4280F0ED81DBF8005003EB430305EB43
:108B2000C3030093002A00F0EC815BB1009CE06875
:108B300000F074FFE368304608AA00219847002837
:108B40007FF44CAF9DF81C00002101F0CDFA80218C
:108B50009DF81C0001F0C8FA40E76E4B1B78D9075E
:108B60007FF53CAF6E4B002B3FF438AFAFF3008086
:108B700034E7684B1A78D0077FF530AF694A002A8E
:108B80003FF42CAF1878C0F3C000AFF3008025E7A6
:108B9000624D614A2B78002A00F085800024A342B0
:108BA000194614D9DBF8003004EB440203EBC2038E
:108BB0005B69BBB19DF81C00984729780134E4B289
:108BC0000B1D9C423FF70AAF0B46A342EAD8E31ABB
:108BD000DBB2042B7BD803EB43030AEBC3035B69D3
:108BE000002BE7D10134E4B20B1DA342FFF6F6AE31
:108BF0000B46EAE7494D484A2B789DF81C40002A6D
:108C000000F0F88000260FE0DBF8003006EB4602AB
:108C100003EBC2035B68204698472B780136F6B217
:108C20001A1DB242C0F28880B342EDD8F31ADBB20B
:108C3000042B35D803EB43030AEBC303EAE7374DB4
:108C4000354A2B789DF81C40DAB100260EE0DBF89F
:108C5000003006EB460203EBC2035B6820469847F0
:108C60002B780136F6B21A1DB24233DBB342EED88E
:108C7000F31ADBB2042B13D803EB43030AEBC30351
:108C8000EBE7294F01267B68204698472B78043371
:108C90009E4207F1180706F101061BDC062EF2D1F1
:108CA00000235B68FFDE204E01247269002A00F079
:108CB000B3809DF81C0090472B78191D8C4206F15B
:108CC000180604F101043FF789AE062CEDD100230C
:108CD0005B69FFDE0F4C3722002120462AF0C9FED7
:108CE0004FF0FF33C4F80730C4F80B30C4F80F302E
:108CF000C4F80330C4F81330C4F81730C4F81B307C
:108D0000C4F81F30A4F8233000F07EFE9DF8203018
:108D1000A37063E684700020000000003070002023
:108D20000000000000000000346C0500C07000204E
:108D3000F0ED00E02C70002037220021BE482AF020
:108D400098FEBE4A4FF0FF3353619361D3611384A1
:108D5000136053609360D360136100F055FEB84B0D
:108D6000002B3FF43BAEAFF3008037E6D9F800307C
:108D7000DA077FF533AE00BE30E6B24B1B68DC0786
:108D800000D500BE0BB0BDE8F08F581EC0B2FDF795
:108D9000F5FD18B14378022B00F06382D9F800305A
:108DA000DB0700D500BED9F80030DD077FF5CAAE7D
:108DB00000BEC7E6A44800283FF4C4AE00F02EFE73
:108DC000304608AA0021FDF739FF00287FF406AEDF
:108DD000B8E69B1ADBB2042BCFD803EB43030AEBB4
:108DE000C30345E6099B9DF821209DF81C0000F077
:108DF0002BFEF3E5954F01267B68204698472B789C
:108E000004339E4207F1180706F1010694DC062E92
:108E1000F2D100235B68FFDE1A1D944206F11806AA
:108E200004F101047FF751AFD8E5202A00F07A81E0
:108E3000002AB8D19DF82130092BB4D801A252F8EC
:108E400023F000BF599002001B900200A78D020082
:108E500079900200A78D020001900200AF8F0200FE
:108E6000A78D02009B8F02006D8F02009DF82430B9
:108E70000F2B3FF667AE2344754ADB7882B3754A01
:108E8000127893422AD2DBF8004003EB430314EB41
:108E9000C3043FF457AEE06800F0C0FDE36808AAE1
:108EA00000213046984700287FF498AD9DF8203087
:108EB00013F060047FF446AE9DF821300A3B012B8D
:108EC0003FF640AE00F0AAFD9DF821300A2B00F0DD
:108ED0006E8108A9304600F01FFD7FE59B1ADBB2CA
:108EE000042B3FF62FAE03EB43030AEBC304D2E798
:108EF0005B1BDBB2042B40F22D81002A7FF422AEF3
:108F000000929DF82130012B04D0C0F02C81032B5E
:108F10007FF449AFBDF822509DB9012B00F0348198
:108F200025183D4420356B799B070AD4304601F063
:108F3000DBF86B7943F002036B716B7943F001034B
:108F40006B71009D002D3FF449ADE86800F066FDAF
:108F5000EB6808AA002130469847002000F05EFD2B
:108F600094F82630DF073FF539ADB2E79DF822309F
:108F700003931A4663789A4207D06378002B40F037
:108F80001F81039B002B7FF400AF9DF80C306370B2
:108F9000304608A900F0C0FC20E50AAA637802F870
:108FA0000E3D3046012308A900F0CEFC16E5BDF8C1
:108FB0002200030A5A1EC0B20E2A3FF6C3AD01A119
:108FC00051F822F00D910200F1900200E1900200B0
:108FD000458B0200458B0200BB900200F19002001D
:108FE000458B0200458B0200458B0200458B020039
:108FF000458B0200458B0200458B020095900200D4
:1090000008A800F011FD30469DF8221000F01EFE69
:10901000237843F002032370E0E4BDF82230012BF3
:109020007FF490AD237830466FF3C30308A9237013
:1090300000F072FCD2E400BF847000208770002032
:1090400000000000F0ED00E03D6C0200346C050013
:1090500000000000307000202378990801F0020120
:10906000C3F340130AAA0B4322F80E3D30460223F5
:1090700008A900F069FCB1E4BDF82230012B7FF4AF
:1090800061AD2378304643F0080308A9237000F04F
:1090900043FCA3E4B14B002B3FF454ADFDF7CAFDF4
:1090A000024600283FF47FAE3046538808A900F0FE
:1090B0004BFC00287FF492AC44E5A94B002B3FF415
:1090C00041ADAFF30080024600283FF43BAD30468F
:1090D000137808A900F038FC00287FF47FAC31E554
:1090E000BDF82410FDF750FC02460028EFD129E519
:1090F000022B00F06D819B4B002B3FF423ADAFF3AF
:1091000000800246002A3FF44EAECDE7FDF732FC68
:109110001223024608A9304600F016FC00287FF40E
:109120005DAC0FE59DF824300F2B3FF60BAD2344CB
:109130008D4ADB782AB18D4A127893421BD39B1A51
:10914000DBB2042B3FF6FEAC03EB43030AEBC30494
:10915000E068EDE403EB43030AEBC3030093002A4A
:109160007FF4E4ACCDE623183B4420330AAA5B79B4
:10917000C3F3400378E7DBF8004003EB430314EB51
:10918000C3043FF4DFACE3E723181F4420377B79A7
:109190009A077FF5D6AE304600F0ECFF7B7965F399
:1091A00041037B717B7965F300037B71C9E60AAAF1
:1091B00008A902F80E4D3046012300F0C5FB0DE46E
:1091C000304600F0E7FD694D674AA1782B780091A1
:1091D0008AB300270EE0DBF8003007EB470203EB11
:1091E000C2035B68304698472B780137FFB21A1DDF
:1091F000BA420BDBBB42EED8FB1ADBB2042B3FF6C4
:109200004FAD03EB43030AEBC303EAE73722002128
:1092100057482AF02EFC574A9DF80030A3704FF0B3
:10922000FF3353619361D361138413605360936080
:10923000D3601361A5E6504B2A4601271D4613460D
:109240006A68019330469047019B19780431B9420E
:1092500005F1180507F10107D8DB062F3FF420AD13
:10926000EEE7C2792378511161F30413921162F38E
:109270004513237043880496C318059300F109072A
:10928000059BBB4240F29C807B780B2B00F09380C7
:10929000012300937B78042B7FF480AD059B324A39
:1092A000DB1B9BB20293314B1B7842B3002201922D
:1092B000164619E0DBF8005006EB460305EBC30544
:1092C000AB68029A049839469847082803D9029B4C
:1092D000834280F08480254B1B780136F6B21A1D3C
:1092E000B2420196FFF65AAD9E42E3D3F31ADDB2C5
:1092F000042D21D805EB45050AEBC505E0E71E4D19
:10930000019215E0AB68029A0498394698470828FC
:109310002B4602D9029A824211D2144B019A1B7831
:10932000013204339342019205F11805FFF636AD80
:10933000019B052BDEB2E5D100239B68FFDE0546CD
:10934000009A012A4ED0009B33B3B97862180B46BD
:10935000D278FF2A7FF422AD002216E0356C02009D
:10936000000000000000000000000000307000203D
:109370008470002087700020346C05005318DBB225
:10938000E018C078FF287FF409AD23440132DE7075
:10939000009BD2B29342F1D833462A463946184848
:1093A00001F0A8FC174B019A1B7804339A422F4412
:1093B0007FF766AFF2E43B78FA7800921F4469E7E2
:1093C000114B049E002B3FF4E0ADAFF30080DCE5D1
:1093D000FDF7D4FA0246002A3FF4E5AC64E62B46DA
:1093E0000546ADE79B6809490098094A8B4208BFCA
:1093F00002200146934208BF02210091A5E700BF69
:10940000977000203070002000000000916F020073
:10941000A976020030B589B000248D1E8DF80910A0
:109420008DF80800CDF80E40CDF80A40ADF8124096
:10943000032D62D8DFE805F0264108023A4B19787F
:10944000C90760D409B030BD374B1978C807F9D5C2
:109450001978364841F00401197000682AB30023D6
:1094600005AA02A91BF020F9059B002BEAD0304B7E
:109470004FF080525A6040BFBFF34F8FBFF36F8FE2
:1094800009B030BD284929480B7800686FF3000304
:109490000B700C7800236FF341040C704B700C7848
:1094A00063F382040C70002ADAD1134602A94FF04C
:1094B000FF321AF0B1FE09B030BD1B490B785B07D3
:1094C000C0D50B788DF8140018466FF38200174C46
:1094D000087000230521CDF81A30CDF81630ADF80C
:1094E0001E3020688DF81510B2B101AA05A91BF035
:1094F000DBF8019B002BA5D0B9E70C4B1868002ABC
:10950000D3D00023ACE7197808486FF382011970B3
:109510000068002AA3D1C8E7134605A94FF0FF321F
:109520001AF07AFE8EE700BF84700020C070002021
:1095300000ED00E030B5154D85B0002301248DF815
:109540000400CDF80630CDF80A308DF80810ADF8DB
:109550000E3028688DF8054082B16A4601A91BF0DB
:10956000A3F8009B43B10A4B4FF080525A6040BFB2
:10957000BFF34F8FBFF36F8F05B030BD134601A906
:109580004FF0FF321AF048FEF6E700BFC07000202F
:1095900000ED00E030B50B4685B049688DF8040059
:1095A0001868114D02AC03C4002306212868ADF8E9
:1095B00006308DF8051082B16A4601A91BF074F8D7
:1095C000009B43B1094B4FF080525A6040BFBFF33C
:1095D0004F8FBFF36F8F05B030BD134601A94FF019
:1095E000FF321AF019FEF6E7C070002000ED00E02F
:1095F00070B584B0164E9DF82040039207250022D6
:10960000CDF806208DF80400ADF80A208DF808107A
:109610008DF8093030688DF805508CB1134601A9DA
:109620006A461BF041F8009B43B10A4B4FF0805251
:109630005A6040BFBFF34F8FBFF36F8F04B070BD50
:1096400023464FF0FF3201A91AF0E6FDF6E700BF0E
:10965000C070002000ED00E02DE9F84FDDE90A6759
:10966000002A46D093464A78052A0C460FD191F835
:1096700003A00AF0030A534509D18B7803F07F0356
:10968000082B0DD91C4B1B68DA0700D500BE1A4BFE
:109690001B68DB0702D40020BDE8F88F00BEFAE7A4
:1096A00081460025DFF854800CE06378052BEED16D
:1096B000E37803F003035345E9D1A37803F07F0374
:1096C000082BDFD898F80210204601F0E1FA0028B4
:1096D000D8D02146484600F0CBFA0028D7D0A3784E
:1096E000DA0914BF3B703370237801355D451C44A3
:1096F000DBD10120BDE8F88FF0ED00E084700020A0
:1097000030B5114D85B000230824029001930391D8
:1097100028688DF8054082B16A4601A91AF0C4FF95
:10972000009B43B1094B4FF080525A6040BFBFF3DA
:109730004F8FBFF36F8F05B030BD134601A94FF0B7
:10974000FF321AF069FDF6E7C070002000ED00E07E
:1097500038B58B7803F07F03082B06D90A4B1B68BA
:10976000DB0700D500BE002038BD084B05460C467F
:109770000846997801F08CFA0028EFD02146284657
:10978000BDE8384000F074BAF0ED00E084700020CD
:1097900070B5164C01F07F0304EB430404EBD114C5
:1097A0002034607910F0010504D16379590704D59C
:1097B000284670BD0025284670BD0D4E4FF0FF3184
:1097C00030681BF0A9F96379DA0707D463795B077E
:1097D00004D4637943F004036371012500233068E6
:1097E0001A4619461AF018FD284670BD84700020EC
:1097F000BC70002038B5134D0C4628684FF0FF317F
:109800001BF08AF9104904F07F0301EB430101EBDF
:10981000D41120314B7913F0010310D14C79C4F3EA
:10982000800424B14A7963F382024A71012400233F
:1098300028681A4619461AF0EFFC204638BD002465
:10984000F5E700BFBC7000208470002070B5144C98
:1098500001F07F0604EB460404EBD1142034657953
:10986000ED0706D50F4B1B68DA0700D500BE0020B8
:1098700070BD657945F00105657100F0DBFA0028DF
:10988000F6D16379074A60F300036371637960F38B
:10989000820363711368DB07E9D500BE70BD00BFAA
:1098A00084700020F0ED00E0054B01F07F0203EB37
:1098B000420303EBD11191F8250000F0010070473D
:1098C0008470002010B50C4C01F07F0204EB4204C0
:1098D00004EBD11494F825309B0700D510BD20343B
:1098E00000F002FC637943F002036371637943F093
:1098F0000103637110BD00BF84700020054B01F0AF
:109900007F0203EB420303EBD11191F82500C0F372
:1099100040007047847000200A4630B4094C496802
:1099200005461068234603C30023C4E9023392F9B5
:1099300000209A422846ACBF802119461A4630BC06
:10994000FFF784BF84710020F0B50E462B4C4968A8
:1099500007463068A260254603C50021E181F588ED
:10996000AB4228BF2B4683B0A381ADB13BB3002AE5
:109970003DD094F90000402B28BF402300282CDB69
:109980001F4A3846FFF762FF98B91E4B1B68DB077A
:1099900012D500BE03B0F0BD96F90030002BACBF6D
:1099A0008021002138462B462A46FFF74FFF00282A
:1099B000EBD0012003B0F0BD002003B0F0BD94F95E
:1099C0000020002AACBF194680211A463846FFF70E
:1099D0003DFF0028D9D00120ECE71146084801934B
:1099E0001A462AF022F8064A019B8021EEE7054B31
:1099F0001B68D907E0D500BE1046CBE78471002074
:109A000098710020F0ED00E0034B0022C3E9002232
:109A1000C3E902221A61704784710020014B18616A
:109A2000704700BF847100200346064A59680068E9
:109A300010B41346002403C3C2E902445DF8044B8A
:109A4000704700BF8471002070B5424C2278C9096C
:109A5000B1EBD21F82B0064616D033B13E4B1B6825
:109A6000DA0743D4002002B070BD3C4B13B121464D
:109A7000AFF300802369002B42D03046354A0221E3
:109A80009847012002B070BD94F90020A068002A18
:109A900008DB0028E6D01A463149019329F0C5FFBA
:109AA000A068019BE589E2881D44ADB21844AA4232
:109AB000A060E58101D03F2B25D8236923B1254A39
:109AC00001213046984798B194F9002000239A422A
:109AD000ACBF8021194630461A46FFF7B7FE78B969
:109AE0001D4B1B68DB07BDD500BEBCE700BEB9E758
:109AF0000146304600F0F8FA3046802100F0F4FAD2
:109B0000012002B070BDA28994F90010531B9BB2D2
:109B1000402B28BF402300290ADB95424FF000016B
:109B200012D00F4A3046FFF791FE0028D8D0E7E761
:109B300095420BD001461A460948019329F075FF5A
:109B40008021074A019BEDE70A46EBE780210022CE
:109B5000E8E700BF84710020F0ED00E000000000A5
:109B60009871002042DF704743DF704744DF704741
:109B700012DF70472C4B5B68C3F3080313B9EFF394
:109B800010839BB1294B93F8D820002A36D10122AB
:109B900083F8D8200260BFF36F8FBFF34F8F244A42
:109BA000904227D0043A904224D07047214A53680B
:109BB0001B06E7D5802110B4C2F88410BFF34F8F85
:109BC000BFF36F8F194B93F8D840E4B9012283F8A3
:109BD000D8200260BFF36F8FBFF34F8F144A9042BB
:109BE0001DD0043A90421AD0124B80225A605DF880
:109BF000044B7047002283F8D820704701460122A9
:109C00000D48FFF77DBD5160C2F88410BFF34F8F40
:109C1000BFF36F8F93F8D840002CF4D1D6E7002221
:109C200083F8D820E0E700BF00ED00E0D871002005
:109C30005070024000E100E0759B0200704700BFD9
:109C4000014B80225A60704700E100E0074BD3F8D7
:109C50000014D3F8002400200A434FF48001C3F815
:109C60000024C3F85801C3F8041370470070024081
:109C7000F0B488788D88CC78424FC10900F07F021B
:109C800002EB42034E00DB000E4403EB86033B4431
:109C900004F00304C5F30A05012C1D812BD0012318
:109CA00003FA02F5B9B1384902329340C1F80433DE
:109CB000D1F810352B43C1F81035334B40F4807286
:109CC000C3F81805C3F80C25BFF36F8FBFF34F8F90
:109CD0000120F0BC70472C4C02F10C06B340C4F8D4
:109CE0000433D4F8143502F594722B43C4F81435B8
:109CF00044F82210E1E7082A08D0244B186810F035
:109D00000100E6D000BE0020F0BC7047E9B9B7F80A
:109D1000D4301BB11C4B8022C3F81C251A4A0023E7
:109D2000C2F85031D2F8003313F4001308BFC2F860
:109D30005431154B4FF44012C3F80423D3F81425C3
:109D400042F48072C3F81425B7E7B7F8C8200E4B69
:109D50000021C3F82C1112B18022C3F81C250A4A35
:109D6000D2F8003313F4001308BFC2F85431064B85
:109D7000074AC3F80423D3F8102542F48072C3F8CD
:109D800010259AE7D871002000700240F0ED00E045
:109D900000082000214B8022F0B4C3F88420BFF3D8
:109DA0004F8FBFF36F8F1E4A1E4E0D2101250023DA
:109DB0001D4CA1F10A004FEA810C05FA01F7644439
:109DC00005FA00F0013138431429C6F8080363602E
:109DD000A362C2E90033C2E90233C2E9043302F1EB
:109DE0001802E5D11149124AC6F80823C6F81C35F5
:109DF000C1F8C0307362C1F8C430B364C1F8C83070
:109E0000C6F81455C1F8CC30C6F81055C1E9343342
:109E1000024B80225A60F0BC704700BF00E100E0B6
:109E2000F071002000700240D06F0240D871002015
:109E30000008300001F07F00F0B54FEA400CCE0979
:109E40000F460CEB000571009D4CED00314405EB15
:109E5000810104EB010E6250002283B0AEF80430A1
:109E6000AEF80620002832D1002B39D1954BD3F81B
:109E70008034C3F3C0139E4232D0934B5B68C3F36C
:109E80000803002B4DD1EFF31083002B49D18F4BEA
:109E90005A68150645D58022C3F88420BFF34F8F3A
:109EA000BFF36F8F94F8D810002940F0E980884AFA
:109EB000012384F8D8301360BFF36F8FBFF34F8F47
:109EC000002384F8D830814B80225A603AE04EB9A2
:109ED00063199A7A002A40F08580012003B0F0BD12
:109EE000002E40D0844404EBCC0400EB8003618A54
:109EF000228AA58AE468521A9B0092B203F1804339
:109F000003F51C337349C3F80046AA4228BF2A460A
:109F100001EB8000C3F80426FFF72CFE012003B0FC
:109F2000F0BD94F8D83003F0FF02002B42D168490D
:109F3000012384F8D8300B60BFF36F8FBFF34F8FCE
:109F400084F8D820604B5A68C2F30802003218BF68
:109F5000012200230092184639461A46FFF748FBB3
:109F6000012003B0F0BD584B5B68C3F308033BBB53
:109F7000EFF3108323BB554B5A68100620D580227F
:109F8000C3F88420BFF34F8FBFF36F8F94F8D810BE
:109F9000002977D1504A012384F8D8301360BFF3E9
:109FA0006F8FBFF34F8F002384F8D830474B802248
:109FB0005A6092E7012246494848FFF7A1FBC1E7F2
:109FC00094F8D83003F0FF02002B5DD14249012301
:109FD00084F8D8300B60BFF36F8FBFF34F8F84F8D6
:109FE000D8207AE708289E722ED1364BD3F8C024A9
:109FF000D1033FF572AFD4F8C0003349C3F8A007CE
:10A00000C3F8A4274B68C3F30803002B42D1EFF336
:10A010001083002B3ED12D4B5A6812063AD5802270
:10A02000C3F88420BFF34F8FBFF36F8F94F8D8101D
:10A0300000293CD12A4A012384F8D8301360BFF3A9
:10A040006F8FBFF34F8FB1E765591E499A8800F5AE
:10A05000947400EB800651F82440DB88D21A93B246
:10A06000A4B201EB86011F4AC1F80057A34228BFE2
:10A070002346C1F8043702EB8000FFF77BFD2CE795
:10A080005A6009E75A607BE7012213491348FFF73A
:10A0900037FB22E794F8D8305BB9114A012384F8E2
:10A0A000D8301360BFF36F8FBFF34F8F15E75A603F
:10A0B000B6E701220A490948FFF722FB0DE700BF76
:10A0C000D87100200070024000ED00E000E100E0E7
:10A0D00050700240047002404C700240759B0200B8
:10A0E0004870024028700240F8B511F07F0314D088
:10A0F000082B0DD01C4C41F48072C909C4F81825F6
:10A1000006D103EB4302194DD200A818867A66B92E
:10A11000BFF36F8FBFF34F8FF8BD134B01225A650A
:10A12000BFF36F8FBFF34F8FF8BD03F59476817245
:10A1300054F826608188B0F806C0AF580C48A1EBEF
:10A140000C018AB2B5B203EB830C04EB8C04AA4277
:10A1500028BF2A46C4F8007700EB8300C4F8042720
:10A16000FFF708FDD4E700BF00700240D87100205F
:10A170002870024011F0770F12D00A4B41F4807220
:10A18000C3F80C15C3F80C25CA09C3F8181504BF89
:10A1900001F5947143F82120BFF36F8FBFF34F8F08
:10A1A000704700BF007002402DE9F04F8C4B8D4C82
:10A1B000D3F80003002387B01E461F46012520FA6E
:10A1C00003F11A19C9074FEA820209D5116839B19A
:10A1D00005FA03F117600E43BFF36F8FBFF34F8F84
:10A1E0000133192BEBD1F70700F1CE81DFF80C8298
:10A1F000350508D57A4BD3F8A83601229BB2A8F8CA
:10A20000D23088F8D720B40214D5754BD3F8142572
:10A21000D00500F11082D3F81025D00540F1F0816F
:10A2200098F8D730002B40F0128201220321002041
:10A23000FFF7F0F871021FD5694BD3F8004404F41E
:10A24000E062C3F80024E20500F1EA81670510D559
:10A25000634B0122C3F808259A65D3F8002312F452
:10A26000001208BFC3F854215D4B4FF40012C3F82D
:10A270000423A50500F1CE8134022BD5584BD3F829
:10A280008024D2B28DF81020D3F88414C9B28DF88E
:10A290001110D3F888048DF81200D3F88C048DF8CF
:10A2A0001300D3F890048DF81400D3F894048DF8BB
:10A2B0001500D3F898048DF81600D3F89C348DF867
:10A2C0001730500601D1052904D0012204A900202D
:10A2D000FFF760F9444B33404BB198F8D830002B6E
:10A2E00040F03C81414B1B68DA0700F1AE81DFF89A
:10A2F0000C91DFF8ECA0DFF808B1C8464D46002409
:10A3000010E0224408EBC2020123D188A980D28840
:10A310000093002318463946FFF76AF9082F45D005
:10A320000134183504F10C0326FA03F3DB07E7B216
:10A33000F4D504EB84030AEB83032968D3F80837C8
:10A340006200DBB21019194408EBC0002960C18813
:10A350009BB2194489B2082CC180D2D02989994274
:10A36000CFD1C388A9889942CBD9002FD6D1204B11
:10A370005B68C3F30803002B40F07282EFF3108395
:10A38000002B40F06D821B4B5A68100640F168822A
:10A390008022C3F88420BFF34F8FBFF36F8F98F8EC
:10A3A000D810002900F08E825A60F2E7124B334039
:10A3B000002B00F0C3800A4BD3F86C74C3F86C74A4
:10A3C000BFF36F8FBFF34F8F16F4806640F0B980F4
:10A3D000CDE90266024EDFF82CA000241CE000BF8D
:10A3E00000700240409C0010FCFB1F00F0ED00E0FC
:10A3F00000ED00E000E100E000040001D871002061
:10A400004C700240019C0010002C00F0AD81072D23
:10A410003BD0013409F1180927FA04F304EB840C4A
:10A4200004EB4402D90706EB8C0C08EBC202E5B240
:10A43000EAD5DCF80836D9F80C10DBB201EB030ED4
:10A44000C9F80CE0518A0B449BB25382518AB9F887
:10A4500010B004EB0A008B454FF000034FEA800078
:10A4600045F080017ED9538AB9F81420CCF800E673
:10A47000ABEB030B1FFA8BF3934228BF1346CCF8C8
:10A480000436FFF777FB072DC3D1FB0371D4039B81
:10A49000002B6ED1BE0309D5B8F81E20B8F81C30C9
:10A4A000934200F26681012388F822307D0309D5AA
:10A4B000B8F83620B8F83430934200F20181012315
:10A4C00088F83A303C0309D5B8F84E20B8F84C303B
:10A4D000934200F21F81012388F85230F80209D517
:10A4E000B8F86620B8F86430934200F2598101232D
:10A4F00088F86A30B90209D5B8F87E20B8F87C30FF
:10A50000934200F26281012388F882307A0209D5F1
:10A51000B8F89620B8F89430934200F26B8101238A
:10A5200088F89A303B0209D5B8F8AE20B8F8AC30BC
:10A53000934200F27481012388F8B23007B0BDE87D
:10A54000F08FD3F88024D3F8803483F08003C3F3F2
:10A55000C0130393C2F3C01302933BE7002388F8B0
:10A56000D830C4E60120528A00901846FFF740F820
:10A570004DE7B8F80620B8F80430934200F2DF80C7
:10A58000012388F80A3085E7BE4BBF4ADFF83083E5
:10A59000BE4800240125C2F81455C2F81055546075
:10A5A00094625C609C629C60DC62DC601C631C6189
:10A5B0005C635C619C639C61DC63DC611C64546271
:10A5C0009464C2F85841D2F80034D2F800140B4316
:10A5D000C2F80034D2F80033C2F808332146C2F87A
:10A5E00004034046DC2229F044FA40232A4621464F
:10A5F0002046A8F81430A8F80830FEF79BFFF7E5CE
:10A600004FF40012C3F80823032101220020FEF7B3
:10A6100001FF0FE6012205210020FEF7FBFE2BE6DD
:10A620000122C3F82C2504210020FEF7F3FE670564
:10A630007FF51FAE0CE6D3F8C024D10314D5D3F8B0
:10A640001035DF057FF5F1ADEAE500BE4FE60024E9
:10A650000121B8F8D220009123462046882188F8AD
:10A66000D740FEF7C5FFE0E5D8F8C0008849C3F839
:10A67000A007C3F8A4274B68C3F30803002B34D109
:10A68000EFF310838BBB834B5A6812062DD58022C3
:10A69000C3F88420BFF34F8FBFF36F8F98F8D810A3
:10A6A00000297BD17C4A012388F8D8301360BFF39E
:10A6B0006F8FBFF34F8F774B80225A60724BBEE78C
:10A6C000714AD8F83040D2F8A814B8F83600C2F869
:10A6D00028471B1A9BB289B28B4228BF0B46C2F88F
:10A6E0002C376E48FFF746FAECE698F8D830002B86
:10A6F00040F0AA80684A012388F8D8301360BFF37D
:10A700006F8FBFF34F8F604BD3F81035DC053FF5EB
:10A7100087AD8AE55C4AD8F84840D2F8AC14B8F85E
:10A720004E00C2F83C471B1A9BB289B28B4228BF2D
:10A730000B46C2F840375A48FFF71CFACEE6524A99
:10A74000D8F80040D2F8A014B8F80600C2F80047C4
:10A750001B1A9BB289B28B4228BF0B46C2F8043742
:10A760005048FFF707FA95E6029B002B3FF451AEE5
:10A770005FE6454AD8F81840D2F8A414B8F81E008D
:10A78000C2F814471B1A9BB289B28B4228BF0B46F2
:10A79000C2F818374448FFF7EDF987E65A6077E7C3
:10A7A000394AD8F86040D2F8B014B8F86600C2F858
:10A7B00050471B1A9BB289B28B4228BF0B46C2F886
:10A7C00054373A48FFF7D6F994E62F4AD8F878403C
:10A7D000D2F8B414B8F87E00C2F864471B1A9BB2D2
:10A7E00089B28B4228BF0B46C2F868373048FFF762
:10A7F000C1F98BE6244AD8F89040D2F8B814B8F8DA
:10A800009600C2F878471B1A9BB289B28B4228BFC8
:10A810000B46C2F87C372748FFF7ACF982E61A4AA4
:10A82000D8F8A840D2F8BC14B8F8AE00C2F88C47EB
:10A830001B1A9BB289B28B4228BF0B46C2F89037D5
:10A840001D48FFF797F979E6012213491B48FEF7E7
:10A8500057FF0D4BD3F81035DD053FF5E1ACE4E4CF
:10A8600098F8D83003F0FF02002B3BD1012388F881
:10A87000D830CBF80030BFF36F8FBFF34F8F88F81D
:10A88000D8204DE504700240007002400514C0015C
:10A8900000ED00E000E100E048700240307002404E
:10A8A00034700240287002402C7002403870024020
:10A8B0003C7002404070024044700240759B0200B0
:10A8C000D8710020012388F8D830CBF80030BFF3CE
:10A8D0006F8FBFF34F8F002388F8D830044B80224E
:10A8E0005A601DE5012259460248FEF709FF17E5A7
:10A8F00000E100E0759B020030B5012883B000F054
:10A900009B8053D302283CD1B44BD3F80435002BA1
:10A9100040F0CB80B14AD2F800341C05FBD54FF48F
:10A920000063C2F80034BFF36F8FBFF34F8FAC4AA0
:10A93000AC4B12681B68082A00F0CB80A749AA4AD2
:10A9400080230120C1F81C35C1F80403C2F884310A
:10A950005360A64D43F204044FF080432268AA429C
:10A9600011D0D3F80C14D3F80C24D003F6D5CA07B1
:10A97000F4D59A4B0122C3F80425BFF36F8FBFF3C0
:10A980004F8F03B030BD02AA002102F8041D10460B
:10A99000FFF7EEF89DF804000028E2D01046019180
:10A9A000FFF7E4F8019A002AD8D0E2E78B4BD3F8FE
:10A9B0000025002AE5D14FF480014FF40062C3F86E
:10A9C0000813C3F80024BFF36F8FBFF34F8F844B7E
:10A9D0001B68082B00F0AC80804B0122C3F80025D7
:10A9E000BFF36F8FBFF34F8F43F2040203F18D5318
:10A9F00003F57723126803F2DB539A4200F0BF801D
:10AA00004FF08043D3F80C24D3F80C34D90301D58C
:10AA1000D207B6D443F20402744B12689A4200F093
:10AA20000C81734B00221A601B6801934FF0804326
:10AA3000012201991A60A4E7684BD3F80025002A87
:10AA40009FD00022C3F80425BFF36F8FBFF34F8F51
:10AA500065498020C1F88400BFF34F8FBFF36F8F2B
:10AA6000D3F80013C3F80813C3F80025BFF36F8FA2
:10AA7000BFF34F8F43F2040103F18D5303F57723A6
:10AA8000096803F2DB53994200F08E80594B012292
:10AA90001A60594B5A68C2F30802003218BF0122EB
:10AAA00002210020FEF7B6FC6BE743F204024F4B95
:10AAB00012689A4200F0AC804FF08043D3F80C2427
:10AAC000D3F80C34DB037FF525AFD5077FF522AF34
:10AAD00057E7032B09D8494A1168002979D1484C16
:10AAE00049F275301060216010605A1E022A10D899
:10AAF000424A1168002964D1424D3948394B0068F7
:10AB00001B6849F2753414602960146008287FF4CA
:10AB100015AF032B3FF612AF3B493C4B40F2E370BD
:10AB2000402208601A60BFF36F8FBFF34F8F05E7B5
:10AB30002C4B1B685A1E022A12D8304B1A68002A66
:10AB400040F08D802F4949F2753203201A60086069
:10AB50001A60234A234B12681B68082A7FF43CAF13
:10AB6000032B3FF639AF254B1A68002A73D12449CD
:10AB700049F27532C0201A6008601A602CE702ABF7
:10AB8000002203F8042D1846FEF7F2FF9DF804108A
:10AB900000293FF435AF18460192FEF7E7FF019B0D
:10ABA000002B7FF4EEAE35E702A800F8042DFEF787
:10ABB000DFFF9DF80430002B3FF468AFFEF7D4FFB1
:10ABC00067E70749074B0F4A08681B6800211160B7
:10ABD0009CE70B4A0021116087E700BF007002402C
:10ABE000300100103401001000E100E0DBE5B1515C
:10ABF000000100400400004000ED00E000EC0640D1
:10AC000014EC064014ED064000780240047802403F
:10AC100002AB002203F8042D1846FEF7A9FF9DF8A9
:10AC2000041000293FF448AF18460192FEF79EFF3A
:10AC3000019B002B7FF4A5AE6CE602A8002300F870
:10AC4000043DFEF795FF9DF80430002B3FF4E9AE7C
:10AC5000FEF788FF95E6044BC0221A60BCE6034B62
:10AC600003221A6075E700BF14EC064014ED06409D
:10AC700008B50020FDF71AFE20B9034B1B68DB075F
:10AC800000D500BE08BD00BFF0ED00E0FDF708BE36
:10AC9000C378828803F003000228C2F30A021DD0A1
:10ACA00013D801280FD1022940F2FF3308BF4FF417
:10ACB0008063934211D20E4B186810F001000CD043
:10ACC00000BE002070470020704702290CBF4FF4DF
:10ACD000806340239342EED301207047022902D0C3
:10ACE000402AE8D8F8E7B2F5007FE4D1F4E700BFE6
:10ACF000F0ED00E00A44914216D230B44C78052CB5
:10AD000005D00C7821448A42F8D830BC70478C7842
:10AD100004F07F0500EB4505E4092B550C78214430
:10AD20008A42EBD830BC7047704700BF10B504466C
:10AD300018F0B0FF204610BD014B01221A70704779
:10AD4000849D00202DE9F04B55495648DFF88C8151
:10AD500082B029F0D9FC544829F0D6FC0A2029F009
:10AD6000EBFC98F80030002B40F090800522002189
:10AD7000012015F04FFE4D484FF4E1318146FBF7BD
:10AD8000DFFB19F031F941F2873600270446002530
:10AD900019E019F029F98346BBEB04024FF0000CCF
:10ADA0006CEB0503964277EB03034FF064000FDB77
:10ADB00019F026F923201CF03FFCB0FA80F1490974
:10ADC00023201CF01DFC4846FBF7D2FB0028E0D0F6
:10ADD0003749364818F0A0FF98F80030002B50D1C2
:10ADE0003449324818F098FF98F80030002B43D1CE
:10ADF000314C324E324D218833882A882B480091BD
:10AE0000304918F089FF98F8003063BB2E49274875
:10AE100018F082FF98F8003003BB2549234818F04A
:10AE20007BFF98F80030A3B917F0D8F820491F48E5
:10AE300018F072FF98F800301BB11D49234818F034
:10AE40006BFF234818F02EFF224B187802B0BDE8A4
:10AE5000F08B17491D4818F05FFFE5E71A491B48BA
:10AE600018F05AFFD9E7218833882A8817480091BB
:10AE7000144918F051FFC9E70E49144818F04CFF67
:10AE8000B6E70B49114818F047FFA9E706490F48F4
:10AE900018F042FF10490D4818F03EFF66E700BF6A
:10AEA000D06E0500D46E0500DC6E05006C660020D7
:10AEB000E86E0500086F05006E6200209495002082
:10AEC0006C620020186F0500306F05008898002024
:10AED000B87200201A6100208C830500649900205C
:10AEE0008B4A38B51388DB0700D438BD13888949ED
:10AEF00089488A4C23F001031B041B0C138029F0A2
:10AF000003FC874829F000FC0A2029F015FC23786F
:10AF1000002B40F0AC80834B1B78002B00F09A8014
:10AF2000814B1B78002B40F0918017F09DFEDFEDE8
:10AF30007F7A7F4D20EE270ABCEEC00A10EE103A51
:10AF40002B8017F091FEDFED7B7A7B4820EE270AFD
:10AF5000022118F0AFFE2B88784DB3F5917F24D3F2
:10AF6000B3F5CD7F2A7838D9002ABED0744B754806
:10AF7000D96C00232B701CF003F872481BF0CCFF37
:10AF80006449654829F0C0FB6F4829F0BDFB0A20E1
:10AF900029F0D2FB2378FBB16B496C4818F0BCFE5A
:10AFA0006B496A4818F0B8FE16E001236949654804
:10AFB0002B701BF0E5FF63481BF0AEFF5549564868
:10AFC00029F0A2FB644829F09FFB0A2029F0B4FB7A
:10AFD0002378002B40F082802A78002A85D0584BB5
:10AFE000554893F85930002B4AD018F061FE0546B9
:10AFF000514818F05BFE00220146284618F0D8FCA4
:10B0000000286DD0012854D001301AD1534954483A
:10B0100018F082FE2378002B70D13E493E4829F07B
:10B0200073FB504829F070FB0A2029F085FB237838
:10B030003BB14C49454818F06FFE4549434818F06C
:10B040006BFE3D48BDE8384018F02CBE0F2017F0CD
:10B050005FFF6AE74449424818F05EFE2378002B00
:10B060003FF45EAF4049394818F056FE58E72C4986
:10B07000364818F051FE3649344818F04DFE4AE77C
:10B0800018F016FE05462C4818F010FE014628461A
:10B0900018F09CFB1F49204829F036FB334829F063
:10B0A00033FB0A2029F048FB2378002BC9D02F4915
:10B0B000C0E72F492A4818F02FFE23781BBB1549FB
:10B0C000154829F021FB2B4829F01EFB0A2029F006
:10B0D00033FB2378002BB4D02649ABE71E495CE74D
:10B0E0000C490D4829F010FB204829F00DFB0A20DF
:10B0F00029F022FB2378002BA3D0D8E71749134867
:10B1000018F00AFE89E71A49104818F005FED6E73C
:10B11000869D0020D06E0500D46E05006499002045
:10B12000C06C05001A610020849D0020CDCCCC3D70
:10B13000B47200206F12833AB8720020C0720020EF
:10B140006C6300208C9D0020046D05008898002011
:10B150008C83050080EE3600E46C05005C6D050014
:10B160006C660020706D0500D06C0500246D050034
:10B17000346D0500406D05002DE9F04FA34C83B000
:10B180002388590600AF1FD52388A14AA149127808
:10B19000A148A24D23F040031B041B0C2380EAB1FD
:10B1A00029F0B2FA9E4829F0AFFA0A2029F0C4FA31
:10B1B0002B78002B40F0AE819A499B4818F0ACFDEB
:10B1C0002B78002B40F0B8812388DA061FD423881F
:10B1D0001B0778D40C37BD46BDE8F08F29F094FAF0
:10B1E000924829F091FA0A2029F0A6FA2B78002B30
:10B1F00040F099818E498C4818F08EFD2B78002BF9
:10B2000040F0838100F0C4FF2388DA06DFD523886D
:10B21000884E80498048DFF86892DFF868827F4D69
:10B2200023F010031B041B0C238029F06DFA3178E6
:10B23000814800290CBF4946414629F065FA0A2099
:10B2400029F07AFA2B78002B40F051817B4B93F850
:10B250005720002A00F0CC8093F85930002B00F0E2
:10B26000C7803278DFF82092DFF8208274496E4878
:10B27000002A0CBF4A46424618F04EFD2B7843B1D7
:10B2800032786F496F48002A0CBF4A46424618F090
:10B2900043FD3378002B9AD16B4A13780133DBB22C
:10B2A0000A2B137093D1642018F0AAFEBFF34F8FBE
:10B2B0006649674BCA6802F4E0621343CB60BFF390
:10B2C0004F8F00BFFDE7238852495348534D23F069
:10B2D00008031B041B0C238029F016FA5D4829F093
:10B2E00013FA0A2029F028FA2B78C7F804D0002B8B
:10B2F00040F04581514B584C93F85910574EB4F9D2
:10B30000002096F90030002900F0C68054494648D4
:10B3100018F002FD2B78002B40F05881514C524917
:10B320002278414818F0F8FC2B78002B40F0488137
:10B330004E4E3378B3B14E4CDFF85481DFF8E890CD
:10B34000DFF800A1A3461BF8012B4146484618F040
:10B35000E3FC2A78ABEB0401002A40F0F28032785B
:10B360008A42F0DC4349304818F0D6FC2B78002B99
:10B3700040F00081347804EB4403DA1D02F4FF62EC
:10B38000ADEB020D0021012BE8468DF8001003F112
:10B39000FF3203DD0DF1010028F06BFB9CB1DFF8FB
:10B3A000D090DFF8F0A0CB4600241BF8012B5146CB
:10B3B00008EB040029F018FA3178ABEB09020334EA
:10B3C0009142E4B2F1DC1349134829F09DF941465A
:10B3D000294829F099F90A2029F0AEF92B78002B99
:10B3E00040F0D680D7F804D00C37BD46BDE8F08FCA
:10B3F00022490D4818F090FC2B78002B3FF449AF00
:10B400001E49104818F088FC43E700BF869D0020C5
:10B41000709B0020D06E0500D46E0500649900205A
:10B42000CC6D0500E86D05006C660020F86D050028
:10B430000C6E0500789B0020206E05006C630020D8
:10B44000346E050088980020C172002000ED00E0F5
:10B450000400FA055C6E0500729B0020749B0020BE
:10B46000786E0500719B0020946E0500779B00208C
:10B470007C9B00208C830500CC8305004C6E05006E
:10B48000B06D0500A06D0500C46D0500BC6D050024
:10B49000EC7B0500C86E05005149524818F03CFC91
:10B4A0002B78002B40F083804F494E4818F034FC35
:10B4B0002B78002B76D14D4E3378002B3FF452AFD2
:10B4C0004B4CDFF85C81DFF81C91DFF82CA1A34620
:10B4D0001BF8012B4146484618F01EFC2A78ABEBBE
:10B4E0000401002A3AD132788A42F1DC3AE7327814
:10B4F00040494148002A0CBF4A46424618F00CFC1D
:10B500003E493D4818F008FCA0E63D493A4818F08D
:10B5100003FC77E63B49384818F0FEFB37493648CC
:10B5200018F0FAFB48E63849334818F0F5FB334980
:10B53000314818F0F1FB5DE634492F4818F0ECFB78
:10B5400042E61BF8012C4146504618F0E5FB3178E5
:10B55000ABEB040291423FF7F6AE03E71BF8012C78
:10B560004146504618F0D8FB3178ABEB04029142CB
:10B57000AEDCF7E62149204818F0CEFBFAE6244974
:10B580001D4818F0C9FB1D491B4818F0C5FBB1E662
:10B5900042462049184818F0BFFB1849164818F0D1
:10B5A000BBFB1FE71049144818F0B6FB83E796F978
:10B5B0000030B4F900200A490F4818F0ADFB73E7DA
:10B5C000227815490C4818F0A7FBB1E696F900302F
:10B5D000B4F900201149084818F09EFB9EE600BF10
:10B5E000A06E05006C660020C06E0500779B0020F1
:10B5F0007C9B0020206E0500889800208C8305002D
:10B600000C6E0500CC6D0500F86D0500E86D0500B9
:10B610005C6E0500CC830500946E0500786E050015
:10B62000EC7B050010B5064CFF21204618F026FBE8
:10B630002046044A0449BDE8104027F05FBA00BF25
:10B64000B8720020006000202DAD020038B51C4B00
:10B650001B781BB11B4D2B885B0700D438BD1A49E2
:10B660001A4829F051F81A4829F04EF80A2029F012
:10B6700063F8184B1B78D3B92B88174C23F00403BD
:10B680001B041B0C2B8007E011F06EF9C0B217F001
:10B69000C3F8052018F0B4FC204611F019F9002871
:10B6A0002046F1DC0A20BDE8384017F0B5B808495B
:10B6B0000A4818F031FB0A49084818F02DFBDBE76F
:10B6C000849D0020869D0020AC6C0500D46E050092
:10B6D000B06C0500649900207098002088980020C4
:10B6E0008C830500437810B504467BB91C4900786B
:10B6F0000A6822F001020A60F0B1012806D1194B54
:10B700001B681B6A2BB1207998476378033B012B98
:10B7100000D910BD124A2178136823F00103136089
:10B72000A9B10129F5D10F4B1B681B6A002BF0D082
:10B730002079BDE8104018470A4B1B68DB69002BD5
:10B74000E7D098476378033B012BE2D8E2E7054B4B
:10B750001B68DB69002BDCD0BDE81040184700BF38
:10B760005C770020E8720020037883B1012B0DD1B3
:10B77000427852B90C4A117839B182F84830037ACC
:10B7800082F84930437A82F84A3070477047074A56
:10B79000437812681BB19369002BF6D018471369E0
:10B7A000002BF2D0184700BF10730020E872002071
:10B7B00043783BBB2DE9F041B24C25788AB025B1E6
:10B7C000B4F846300133A4F84630437BBBB1C378AC
:10B7D000E02B18D0027B81688DF8193000248DF899
:10B7E0001820A94B8C541B68027C8DF81C208168A2
:10B7F000C289DB680591ADF81A2005A898470AB000
:10B80000BDE8F081704735B9037B042B7DD09F489C
:10B8100004F066F8F3E7826813786370072BEED8BC
:10B82000DFE803F0403D396E562F0E04037B032BF7
:10B8300000F0D280072B00F0E28001236370DEE786
:10B84000934B1B788DF80C300025022302A8A570BD
:10B85000A4F8465025708DF8083007F079FC8D4B20
:10B86000187808F00DFA8C4B8DF814500FCB0AADF8
:10B8700005E90F0005A807F05BFE2378002BBED179
:10B88000C5E70AA8012300F8143D07F051FE23780C
:10B89000002BB4D1BBE70123A3706370AFE7022391
:10B8A0002371ACE77A4A12788DF81820002302221F
:10B8B00005A8A4F8463023708DF8142007F048FC42
:10B8C000744B187808F0DCF92378002B97D19EE7A9
:10B8D000037B2371F22B4FF004011D4628BFF22594
:10B8E000012B61718BD96D49012300E08268D25C24
:10B8F0000133DCB20132AC4201F8012FF6D37EE70E
:10B9000000220123A270637079E783681A78012A04
:10B910007FF47DAF5A78012A7FF479AF9A78012AB3
:10B920007FF475AFDE78012E7FF471AF0AAF4FF070
:10B93000020807F8208D3846A570A4F8465084F810
:10B94000485084F8495084F84A502670667084F84C
:10B95000048007F01DFB4E4B9DF80C201A703846F2
:10B960008DF808808DF80C6007F0F2FB284608F08F
:10B9700087F94B49454803F05BFF41F28831434862
:10B9800003F0B6FF94F84830002B64D040F2035126
:10B9900094F8492094F84A3084F848506670A180A1
:10B9A000A271E37101A9207907F064FA002842D05E
:10B9B000002303228DF814300793ADF820308DF862
:10B9C0002220324803F07CFF05A807F0AFFE237861
:10B9D000002B7FF414AF1AE702238DF8143051784E
:10B9E000937805A843EA0123ADF8183007F0A0FDCD
:10B9F000237801226270002B7FF401AF07E7032355
:10BA00008DF814305178937843EA0123ADF818305B
:10BA10001379D07851791B0243EA00430B43642128
:10BA200001FB03F3079393798DF8203005A807F005
:10BA30007FFD2378DDE7A2782379A2B9E0201749BA
:10BA40008DF814200322ADF820308DF818000791EE
:10BA50008DF82220B5E76378012B23D0042BA1D1E8
:10BA6000012363709EE70120E0210C4AADF82030ED
:10BA700040F603038DF814008DF818100792ADF806
:10BA800022309EE710730020E87200205C730020D3
:10BA90000C7300209A730020EC72002015730020B4
:10BAA000B5BA0200B4F84630A37102221B126371CA
:10BAB000227177E710B52F4C94F8483086B01BB34D
:10BAC000002340F2035094F8491094F84A2084F877
:10BAD00048300123A080A171E2716370032001A9A5
