:020000022000DC
:1060000000000420B1210400F1210400F321040068
:10601000F5210400F7210400F9210400000000002C
:106020000000000000000000000000002D2104001E
:10603000FD210400000000004D21040001220400A5
:10604000ED230400032204000322040003220400C1
:1060500003220400032204000D05040003220400AF
:10606000032204000322040003220400032204008C
:10607000032204000322040003220400032204007C
:1060800003220400A51E04000322040003220400CE
:106090000322040003220400E1B9030003220400E8
:1060A000032204000322040003220400032204004C
:1060B000032204000322040000000000000000008E
:1060C0000322040003220400032204009D6F040045
:1060D000032204000322040003220400116C0200C6
:1060E0000322040003220400032204000000000035
:1060F000000000000322040000000000B16F040053
:10610000000000000000000000000000000000008F
:10611000000000000000000000000000000000007F
:10612000000000000000000000000000000000006F
:10613000000000000000000000000000000000005F
:10614000000000000000000000000000000000004F
:10615000000000000000000000000000000000003F
:10616000000000000000000000000000000000002F
:10617000000000000000000000000000000000001F
:10618000000000000000000000000000000000000F
:1061900000000000000000000000000000000000FF
:1061A00000000000000000000000000000000000EF
:1061B00000000000000000000000000000000000DF
:1061C00000000000000000000000000000000000CF
:1061D00000000000000000000000000000000000BF
:1061E00000000000000000000000000000000000AF
:1061F000000000000000000000000000000000009F
:1062000010B5054C237833B9044B13B10448AFF3F0
:1062100000800123237010BD4C66002000000000A8
:10622000CC40050008B5034B1BB103490348AFF34D
:10623000008008BD0000000050660020CC40050032
:10624000154B002B08BF134B9D46A3F5803A002148
:106250008B460F461348144A121A26F006FA0F4BC3
:10626000002B00D098470E4B002B00D09847002001
:10627000002104000D000D48002802D00C48AFF3A7
:10628000008026F075F9200029001BF0D3FF26F0CE
:1062900049F900BF000008000000042000000000D1
:1062A000000000004C6600209CBC002000000000A4
:1062B0000000000008B50146014800F0D9FA08BD09
:1062C0008866002038B500F019F905460024AC4274
:1062D00005D2204600F096FD0134E4B2F7E738BD60
:1062E0002DE9F04192B00C4616461D463C22002195
:1062F0000DF10A0026F0B9F94FF0080E8DF804E010
:106300000B238DF8053002238DF807308DF8083007
:106310008DF809304FF0090C8DF80CC004208DF871
:106320000D0001278DF810708DF811308DF81230A6
:1063300005228DF8152024218DF816104FF0200825
:106340008DF818808DF819708DF81A208DF81B10B3
:106350008DF81C708DF81F008DF820108DF82130FD
:106360008DF822308DF823208DF8241006218DF829
:10637000251007218DF828108DF8292080278DF809
:106380002A704FF003088DF82B808DF82CE04FF029
:10639000100E8DF82EE08DF82FC08DF830008DF89E
:1063A00033300A208DF834008DF838108DF83920FC
:1063B0008DF83B3040208DF83C008DF83F108DF873
:1063C00040208DF841708DF842308DF843008DF8F3
:1063D00006408DF80E40631CDBB28DF81E308DF840
:1063E00026408DF827308DF83130412D03D800201C
:1063F00012B0BDE8F0814224224601A9304626F0C1
:1064000010F92046F4E7A0F11000FFF769BF10B5BE
:1064100082B002AB03F8011D0268546801221946DC
:10642000A04702B010BD007EFF2809D010B500F0D3
:10643000B9FC044608B1204610BD1CF0AFF9FAE7DC
:1064400000207047007EFF280BD000B583B00DF10F
:10645000070100F0C9FC38B19DF8070003B05DF8F2
:1064600004FB4FF0FF3070474FF0FF30F6E7007E3F
:10647000FF280FD000B583B001220DF1070100F015
:106480009FFC20B19DF8070003B05DF804FB4FF0BE
:10649000FF30F9E74FF0FF307047007EFF2803D050
:1064A00008B500F0AFFC08BD7047F8B5037EFF2BC0
:1064B00018D006460D461746144603E0381BF8BDB3
:1064C0001CF06CF9002CF9D0307E00F03BFC002869
:1064D000F4D022462946307E00F0F4FC0544241A0C
:1064E000F0D0EDE70020EAE7007EFF2803D008B5F2
:1064F00000F006FD08BD002070470000014B187831
:10650000704700BF84660020002242604FF47A7119
:1065100081604261044A02F1080101603032026187
:10652000FF220276704700BF48F70400012800D020
:10653000704708B54FF6FF73994200D008BD024876
:10654000FFF7E2FFFAE700BF6866002008B5037EA8
:10655000FF2B00D008BD084B1B78002BFAD1591C2B
:10656000054A11700376054B436100F110010448A0
:1065700000F024F9EEE700BF8466002038F704003D
:106580008866002010B5007EFF2806D000F0DAFBF8
:10659000044618B91CF002F900E00024204610BDA2
:1065A00001B900B1704700B583B0694600F0EAFB5D
:1065B000009BB3F5966F02D003B05DF804FB00F0CA
:1065C0003FFBF9E708B54FF6FF710120FFF7AEFF7B
:1065D00008BD70B44FF6FD730B60047804F14003FE
:1065E000DBB2012B59D9F42C5AD814F0800F0ED1FC
:1065F00001260122964222DD835C03F0C005802D36
:1066000054D103F03F0343EA84140132F2E704F06B
:10661000E003C02B0BD004F0F003E02B0BD004F010
:10662000F803F02B3FD104F007040426E1E704F05F
:106630001F040226DDE704F00F040326D9E7012E2C
:106640000ED0022E11D0032E17D0042E1DD0A4F58B
:106650005843B3F5006F2CD30C6070B270BC704718
:106660007F2CEED94FF0FF30F8E7A4F18003B3F5AB
:10667000F06FE8D34FF0FF30F0E7A4F50063B3F517
:10668000784FE2D34FF0FF30E8E7A4F58033B3F55D
:10669000801FDCD34FF0FF30E0E74FF0FF30DDE745
:1066A0004FF0FF30DAE74FF0FF30D7E74FF0FF3021
:1066B000D4E74FF0FF30D1E72DE9F04182B0064634
:1066C0000F46904600252C4613E0013411E0691C6A
:1066D000414521DAA3F5803301939A0AA2F52052AD
:1066E00027F81520C3F309030235A3F5105327F843
:1066F00011303019335D7BB101A9FFF76AFF002823
:10670000E3DB0444019BB3F5803FE0D2454503D071
:1067100027F815300135ECE7284602B0BDE8F081D6
:10672000F0B488B00446224F03AD3E460FCE0FC5ED
:1067300033682B80254603AE0FCE0FC533682B8000
:106740006D4607F1140393E8070003C504F118052B
:106750006B4603CBA061E16184F8202065614FF4B2
:106760008073A4F81A310923A4F81831002384F89F
:106770001C31012284F81E2184F81D21C4F82C311B
:10678000C4F83031C4F83431C4F83831C4F83C317D
:1067900040F20943C4F82031064BC4F82431064BBB
:1067A000C4F82831042384F8403108B0F0BC7047A5
:1067B0007CF70400ACF70400B8F70400F8B5054610
:1067C0000E464469B0F818211444B0F81A319B1AE7
:1067D0000A6817689BB2224690F81C113046B847E9
:1067E0002218716820BB0020F8BDE378EBB995F85A
:1067F0001C31013385F81C31B9B195F84031072BB4
:1068000013D803F1480645F82610237295F8403155
:10681000013385F84031002107E095F81D315E1CF9
:1068200085F81D61A6783343A3702378F3B11C4427
:1068300094420ED26378042BD7D0052BF5D194F96E
:106840000230002BE9DB95F81E315E1C85F81E61D5
:10685000E8E7B5F81831184480B2A5F818016B695B
:10686000588095F81C211A710120BDE70020BBE774
:1068700070B504460E46FFF753FFEF232371022342
:1068800063710125A5714FF4E1310448FFF75EFE05
:10689000304600F0C3F9284670BD00BF686600208E
:1068A000F0B589B00D4604A800F0CEF907460026E1
:1068B00001E00136F6B2BE421DD20024012CF8D808
:1068C000EC460F4B0FCB8CE80F0008AB334413F8AA
:1068D000103CA200134103F00F0372000132C4F117
:1068E00001010A4408A90B4413F8203C25F8123092
:1068F0000134E4B2E2E7780000F0FE0009B0F0BD38
:106900009CF7040010B5044681B10B4603291BD047
:1069100090F840218A421CD94833202200F5A27108
:1069200050F82300FFF7C8FEC0B204E0D0F82031D1
:10693000A0F844310120431C5B0043F44073A4F8E9
:10694000423104F5A17010BD00F5A171FFF7A8FF59
:10695000F1E70020F7E70000004870478866002054
:10696000014B5869704700BF8866002008B50A4689
:1069700001460248FFF7C6FF08BD00BF8866002039
:10698000034B1B680BB1186970470020704700BFAC
:106990000C6800200948006858B170B5466956B1C6
:1069A0001D4614460846BDF810302A462146B04719
:1069B00070BD002070470020FAE700BF0C6800207F
:1069C0000748006858B170B586693EB11D46144647
:1069D0000846BDF810302A462146B04770BD7047C2
:1069E0000C6800200020704790F8500070470000AD
:1069F00008B5044B186810B1FFF7F6FF08BD00207A
:106A0000FCE700BF106800202DE9F843204C256802
:106A1000ADB300EBC006B4002C44A6698EB300EB06
:106A2000C007BC002C44E7696FB300EBC004A000B2
:106A300005442C6A4CB3984691460D46304626F0E4
:106A40002FFD0246072800D908223146284625F0A6
:106A5000E8FD384626F024FD02460F2800D9102212
:106A60003946484625F0DDFD204626F019FD024650
:106A7000032800D904222146404625F0D2FDBDE876
:106A8000F883044ECBE7044FCFE7044CD3E700BFB5
:106A900010680020D0F70400DCF70400ECF70400D5
:106AA00038B50E4B1D68B5B1044600EBC00293002B
:106AB0002B445B6933B1984704EBC40293001D4437
:106AC00085F82A00054B1B6804EBC404A20013449C
:106AD00093F82A0038BD0020FCE700BF10680020B2
:106AE000084B1B6863B170B4C4002618B5002E466D
:106AF0001D446D6A0D6033441B8D138070BC70475C
:106B0000704700BF1068002010B51C460B781E2B84
:106B100004D10023A34209D9204610BD002320221E
:106B2000052101F02BF84FF6FF73F3E71C46F3E75E
:106B300038B50A4A14685CB10D4600EBC0029100FA
:106B40000C44A4683CB119462846049AA04738BDB5
:106B50004FF0FF30FBE74FF0FF30F8E71068002000
:106B600038B50A4A14685CB10D4600EBC0029100CA
:106B70000C44E4683CB119462846049AA04738BD45
:106B80004FF0FF30FBE74FF0FF30F8E710680020D0
:106B900008B5054B1B6833B100EBC00082001344FD
:106BA0001B6903B1984708BD1068002010B582B07A
:106BB0004FF08043D3F8384402A8002300F8043D86
:106BC0001BF096FB02A8084B40F8083D1BF002FCA6
:106BD0001BF0D0FB14F0010F01D102B010BD00205A
:106BE00003F0A2FFF9E700BF096C020008B5054BEE
:106BF000402283F8272304F081F8FFF7D7FF02F043
:106C0000FBFFFCE700E100E008B503F08DFF08BDE5
:106C100008B5002003F0C8FD08BD000000B583B032
:106C20000023019303220092C822034903481AF06B
:106C30009FFA03B05DF804FBF0F70400ED6B02006F
:106C400008B51CF067F908BD4FF08052536E1BBAAF
:106C50000360136E1BBA43600820704700487047FA
:106C6000F8F70400214B1B68002B35D0002935D1E3
:106C700010B511461478C4F34114012C18D0022C1D
:106C80002ED15278012A03D0022A07D0012028E011
:106C9000DA693AB3137803F013F922E08B88072BF3
:106CA00001D000201DE0124A138903F009F918E011
:106CB0005278222A01D0012013E04A88003218BFFE
:106CC00001221A7603F0E0F8084B1A68136A5BB1E8
:106CD000107E9847012004E0002070470120704793
:106CE000002010BD0020FCE70120FAE71468002016
:106CF0000460002038B5044600F11005284601F074
:106D0000ECFF3F2802D80023184638BDE178002068
:106D100002F04EFC03460028F6D0284601F0DDFFC5
:106D20003F2805D8E178002002F090FC0023EBE733
:106D3000402304F53A72E178002002F0C1FC0346DA
:106D4000E2E7000010B5044602F0F0F960B9002354
:106D50009BB10B4B4FF45A7202FB0434237913F0AE
:106D6000010F08D1002009E002F0E8F908B9012379
:106D7000EEE70023ECE7012000E0002010BD00BF9B
:106D800018680020064A4FF45A7303FB002050F89D
:106D9000063F0B60828883798A808B71704700BFC1
:106DA0001868002008B54FF45A7303FB00F0103048
:106DB000024B184401F078FF08BD00BF186800209E
:106DC00038B5084C4FF45A7303FB00F02518103007
:106DD00092B2204401F093FF04462846FFF78AFF51
:106DE000204638BD1868002008B54FF45A7303FBDD
:106DF00000F01030024B184401F086FF08BD00BFC0
:106E00001868002070B5054602F090F918B9002303
:106E100043B9002070BD02F091F908B90123F7E7EA
:106E20000023F5E74FF45A7303FB05F32833234C93
:106E30001C440434204601F037FF08B90020E9E77C
:106E40001E4A4FF45A7303FB05239978002002F081
:106E5000AFFB08B90020DDE74FF45A7303FB05F3DD
:106E600003F54A73154E1E4440223146204601F078
:106E700046FF0446A0B1114B4FF45A7000FB053099
:106E8000234632468178002002F01AFC30B90C4BC0
:106E90001B6813F0010F0ED000BEBBE72046B9E718
:106EA00006484FF45A7303FB05008178002002F076
:106EB000CDFB0020AEE70020ACE700BF1868002043
:106EC000F0ED00E070B505464FF45A7404FB00F491
:106ED00004F12803094C1C44043492B2204601F00A
:106EE0002CFF0646204601F0DFFE3F2801D8304641
:106EF00070BD2846FFF786FFF9E700BF186800203D
:106F000008B54FF45A7303FB00F02830024B1844C5
:106F1000043001F0E2FE08BD186800202DE9F043BE
:106F200083B04FF45A720021274825F09EFB0026BB
:106F300016B103B0BDE8F083234F4FF45A7404FB3D
:106F400006F43D19FF236B714FF000084FF44243E4
:106F5000EB8001232B8185F80A8085F80B800823BC
:106F60002B7304F1480104F11000CDF800800123D7
:106F70004FF480723944384401F060FE04F5A47186
:106F800004F1280038444FF00109CDF800904B4639
:106F90004FF480723944043001F050FE04F5127150
:106FA0003944484619F031FDC5F82480A86204F53B
:106FB00026713944484619F028FD2864C5F84480F4
:106FC0004E44F6B2B4E700BF1868002070B5002642
:106FD00006B170BD0D4C4FF45A7505FB06F56219EC
:106FE00000236351137105F11000204401F0AAFE43
:106FF00028352C440434204601F0A4FE012120460B
:1070000001F0C8FE0136F6B2E2E700BF18680020C2
:10701000F0B583B04B79022B03D00024204603B097
:10702000F0BD8B79022B01D00024F7E700233BB1A0
:107030000026AEB18B7833700D780D4409241BE027
:107040001E462F4F4FF45A7404FB0374A47814B1F6
:107050000133DBB2EBE74FF45A7404FB0676E8E742
:10706000284B1B6813F0010F44D000BE0024D5E765
:107070002B781C44A4B21D446B78242B01D194427C
:10708000F6D90746052B09D06B78042B02D16B7912
:107090000A2B16D03046FFF72DFEBFE7294602F037
:1070A0001BFA38B9174B1B6813F0010F24D000BE30
:1070B0000024B3E7AB7873702B781C44A4B21D4452
:1070C000E2E729780C44A4B2B31C0193F31C0093AB
:1070D00002231A462944384602F02AFA38B9094BE5
:1070E0001B6813F0010F09D000BE002496E70E3490
:1070F000A4B2CFE7002491E700248FE700248DE7B6
:1071000018680020F0ED00E0F8B5137803F0600394
:10711000202B01D00020F8BD3A4E0025002D66D16D
:10712000347893889C4204D00135EDB206F55A7646
:10713000F4E714465378203B032B5AD8DFE803F0DA
:107140000217214519B1022908D00120E3E70723DE
:10715000B21D214602F0B4FE0120DCE72A4B002BD1
:1071600049D0B11D2846AFF300800120D3E709B113
:107170000120D0E70723B21D214602F0A1FE012025
:10718000C9E719B1022906D00120C4E7214602F05F
:107190007BFE0120BFE7638803F00102002A14BFD1
:1071A00001240024C3F3400733710CBF01210021E7
:1071B00006F12C0001F0EEFD144BF3B13A462146E6
:1071C0002846FFF7EDF90120A5E719B1022906D0FD
:1071D0000120A0E7214602F057FE01209BE70C4B5F
:1071E0006BB161882846AFF30080012093E700204F
:1071F00091E700208FE701208DE701208BE7012038
:1072000089E700BF1868002000000000A1650200A7
:10721000000000002DE9F047002444B1ACB1404B20
:107220001B6813F0010F75D000BE002417E03D4A23
:107230004FF45A7505FB0425EA788A42EED0AA7805
:107240008A42EBD00134E4B2E7E71F460E4681469E
:10725000EB788B4206D0AB78B34236D0012420467F
:10726000BDE8F08705F1100ABAB205F53A7150464B
:1072700001F063FD2C4BD3B16B79FF2B17D04FF08E
:10728000000801E008F10108B84510D26A7905EB61
:10729000080393F8E8329A42F4D1504601F014FD05
:1072A0000028EFD169792046AFF30080EAE71F4B51
:1072B0001BB1504601F008FD18B12846FFF71AFD32
:1072C000C9E7204617F08EFEF7E7194B13B12046A9
:1072D000AFF300802046FFF795FD08B10124BEE71B
:1072E00005F12C0001F0E0FCB0B9BFB117F03F0F81
:1072F00001D00124B3E7A978484602F059F90446C1
:1073000008B90124ABE700231A46A978484602F0E1
:10731000D7F9A4E70024A2E70124A0E701249EE70F
:10732000F0ED00E01868002000000000E5EF030029
:107330000000000008B58C220021024825F095F9D4
:1073400008BD00BF806B002008B50020FFF7F2FFEA
:1073500008BD00002DE9F04182B04B79032B04D029
:107360000024204602B0BDE8F0810C79C4EBC404CF
:10737000A4B21234A4B2944215D9384B1B6813F04E
:10738000010F62D000BE0024EBE71D46344E8C2274
:1073900002FB0362527812B10133DBB204E08C22AB
:1073A00002FB056503E00023002BEED0002565B14C
:1073B0000B78CE187278212A0FD0284B1B6813F057
:1073C000010F46D000BE0024CBE7244B1B6813F00E
:1073D000010F3CD000BE0024C3E70F468046C5F82D
:1073E0008860C95C3A796B1C0193AB1C0093032342
:1073F000314402F09DF838B9184B1B6813F0010FA7
:1074000029D000BE0024ACE7BB79012B1AD00123A0
:107410002B71BB782B70D5F88830B3F80730EB8030
:10742000A97800299DD0402305F14802404602F08A
:1074300047F9002895D1094B1B6813F0010F90D034
:1074400000BE8EE7FB79EB70E1E7002489E70024BA
:1074500087E7002485E7002483E700BFF0ED00E024
:10746000806B00202DE9F04182B0137803F01F04F7
:10747000012C04D00023184602B0BDE8F0819488A6
:10748000E5B20024ACB1FF24002C40F00F8115467A
:107490000746264613F0600339D1002940F00881E1
:1074A00053881B0A5278062A0DD0062A1CD00023C6
:1074B000E1E78C2606FB04F6844FBE5DB542E3D0BF
:1074C0000134E4B2DEE7212BEFD1804A8C2303FBA9
:1074D0000426D6F88820002A00F0EC80137829468C
:1074E00002F0EEFC0346C6E7222B01D00023C2E7E0
:1074F0002046FFF745FA754A8C2303FB0626F388DE
:1075000002462946384602F0DBFC0123B3E7202B74
:1075100001D00023AFE75378013B0A2B00F2CC8067
:10752000DFE803F006909ECACACACACA4578AC0012
:10753000002940F0C3806B881A0ADFF890E18C20A4
:1075400000FB04F008300EEB0008EE88B446402E35
:1075500028BF4FF0400C13F0FF010BD0012E1CD9B7
:1075600008F101030EF800100CF1FF3C1FFA8CFC2F
:10757000012601E043460026CDF800C02046FFF773
:1075800009FA33189BB25BB9514B1B6813F0010F1A
:1075900000F0968000BE00236DE743460026EBE72F
:1075A00042462946384602F08BFC012363E779B94D
:1075B000EB88402B01D900235DE78C2202FB04F20B
:1075C000483242490A44294602F07AFC012352E734
:1075D000022901D001234EE769880A0A3B4F8C201B
:1075E00000FB04F048303B18EE883546402E28BF9B
:1075F000402511F0FF0107D0012E05D9385C8842E3
:1076000002D10133013DADB200952046FFF7D8F914
:10761000012330E7002955D16988090A2B4A8C23B8
:1076200003FB042671712B4B33B12046AFF300806E
:10763000034600283FF41FAF2946384602F024FCD9
:10764000012318E709B1012315E7204B8C2202FB27
:10765000043201230532294602F032FC01230AE7F5
:1076600009B1012307E7194B8C2202FB04320123E5
:107670000432294602F024FC0123FCE619B1022958
:1076800006D00123F7E6294602F0FEFB0123F2E6CD
:107690006988C9B20D4B8C2202FB043631710E4B46
:1076A00093B12046AFF300800123E4E60023E2E635
:1076B0000123E0E60023DEE60023DCE60123DAE630
:1076C0000023D8E60123D6E60123D4E6806B002010
:1076D000F0ED00E00000000000000000F0B583B015
:1076E000254D002444B1A4B1244B1B6813F0010FB5
:1076F0003ED000BE002314E01F4A8C2505FB042564
:10770000AA788A42EFD06A788A42ECD00134E4B297
:10771000E8E706466A788A4206D0AA788A420DD0FF
:107720000123184603B0F0BD154A1AB3DAB205F1C9
:1077300008012046AFF300800123F2E705F1480776
:107740009BB200933B46002211462046FFF738F9D2
:1077500040233A46A978304601F0B2FF034600289C
:10776000DFD1064A126812F0010FDAD000BED8E766
:107770000023D6E70123D4E7806B0020F0ED00E082
:107780000000000038B5044600F11005284601F05D
:10779000A4FA3F2800D838BDA178002001F008FFE6
:1077A0000028F8D0284601F098FA3F2804D8A1789C
:1077B000002001F04BFFEEE7402304F5F472A178BE
:1077C000002001F07DFFE6E770B5044600F12C05CE
:1077D000284601F069FA08B9002070BD61780020E0
:1077E00001F0E6FE08B90020F7E704F50A7640222A
:1077F0003146284601F083FA054678B10346324601
:107800006178002001F05CFF30B9084B1B6813F071
:10781000010F09D000BEE0E72846DEE761780020CE
:1078200001F014FF0020D8E70020D6E7F0ED00E0DB
:107830002DE9F04182B04FF41A7200211E4824F065
:1078400014FF002515B102B0BDE8F0814FF41A74A1
:1078500004FB05F404F14801174F04F110004FF048
:107860000008CDF80080012380223944384401F01B
:10787000E5F904F1C80104F128003844CDF800808E
:10788000012380223944043001F0D8F904F5A471B1
:107890003944012019F0B9F83E19C6F82480B062C5
:1078A00004F5CC713944012019F0AFF83064C6F802
:1078B00044800135EDB2C5E7F4B9002070B500256C
:1078C00005B170BD4FF41A7404FB05F40A4EA219F9
:1078D0000023A35153609360D36004F1100030443F
:1078E00001F030FA04F128003044043001F02AFAA3
:1078F0000135EDB2E4E700BFF4B900202DE9F0470F
:107900004B79012B03D000242046BDE8F0878B790A
:10791000012B01D00024F7E7CB79002B7AD10D7829
:10792000ABB20D4403E029780B449BB20D44697857
:10793000242901D19342F6D9042901D00024E3E798
:107940006979012901D00024DEE7A979032901D052
:107950000024D9E7E97900295ED169B100270FB386
:1079600016468146AA783A7095F8008043449CB246
:10797000A8444FF0000A34E00F462A4E4FF41A7420
:1079800004FB016464782CB94FF41A7404FB01649D
:10799000A47814B10131C9B2DFE74FF41A7404FBC3
:1079A0000767DCE7204B1B6813F0010F36D000BEE1
:1079B0000024A9E71C4B1B6813F0010F30D000BE58
:1079C0000024A1E77B7098F800301C44A4B29844CE
:1079D0000AF1010A5FFA8AFA98F800301C44A4B24E
:1079E00098442B79534511D9B4420FD898F80130F7
:1079F000052BF1D14146484601F06EFD0028D9D053
:107A000098F80230DA09DDD1BB70DCE73846FFF7C1
:107A1000B9FE79E7002477E7002475E7002473E7CF
:107A2000002471E7F4B90020F0ED00E00020704779
:107A3000F8B5002444B1ACB12B4B1B6813F0010F17
:107A40004CD000BE002416E04FF41A76274D06FBFA
:107A50000455AE788E42EED06E788E42EBD0013473
:107A6000E4B2E7E71F460646AB788B4205D06B7859
:107A70008B4213D001242046F8BDBAB205F5F4714B
:107A800005F1100001F059F9194B13B12046AFF37D
:107A900000802846FFF776FE0124ECE72846FFF732
:107AA00093FE08B10124E6E705F12C0001F0FCF893
:107AB000B0B9BFB117F03F0F01D00124DBE76978FF
:107AC000304601F075FD044608B90124D3E70023D0
:107AD0001A466978304601F0F3FDCCE70024CAE786
:107AE0000124C8E70124C6E7F0ED00E0F4B9002066
:107AF00000000000002380F830304363836380F887
:107B00003C3080F83D3080F83E307047C38A5BBA25
:107B10009BB2826812B9EBB900207047C17B28295B
:107B200007D02A2920D023B3B2FBF3F31BB30020E4
:107B3000704710B4047BE4090ED02A2905D06BB13C
:107B4000B2FBF3F373B1002009E0017BC909F6D061
:107B5000022004E002207047022000E001205DF8CE
:107B6000044B70470220FAE7017BC909DBD00220F1
:107B7000704701207047022070470000044880F8D9
:107B80003C1080F83D2080F83E300120704700BF57
:107B90000C6E0020F0B58DB0054614460B78252BF1
:107BA00000F22881DFE813F0260026012601F90003
:107BB000260126012601260126012601260126018D
:107BC000260126012601260126012601AB002601F9
:107BD000260126012601260126012601D5003A00AC
:107BE00026012601260126012601260126017C0008
:107BF00026015800FEF754FF002840F0FE80824B1B
:107C000093F83C3013B14FF0FF30C2E00422022160
:107C10002846FFF7B3FF4FF0FF30BAE07B4B002B55
:107C200000F0ED800979C1F3400301F00102090978
:107C3000AFF30080002840F0E480734B93F83C30B1
:107C400013B14FF0FF30A4E0042202212846FFF7D1
:107C500095FF4FF0FF309CE00DF1060202A9FEF700
:107C60003FFFBDF80620029B03B172B9664B93F843
:107C70003C3013B14FF0FF308BE004220221284644
:107C8000FFF77CFF4FF0FF3083E0013B1BBA03930B
:107C900012BA049203AB03CB20606160082078E045
:107CA000002303930493059308238DF80F300223D8
:107CB0008DF814300DF1060202A9FEF711FF029BA8
:107CC00013B1BDF8062072B94F4B93F83C3013B195
:107CD0004FF0FF305DE0042202212846FFF74EFFFF
:107CE0004FF0FF3055E01BBA049352BAADF816209E
:107CF00003AB07CB20606160A2600C2049E0002349
:107D00000393049380238DF80D3002238DF80E30F9
:107D10008DF80F304FF020330593069307930893A7
:107D200009930A930CAF47F8043D0BAB07AA05A9CA
:107D3000FEF76AFE03AD2E460FCE20606160A260A2
:107D4000E36035461034BE42F5D13068206024200F
:107D50001FE003238DF80C3000228DF80D209DF8D4
:107D60000E3003F0800362F3C7138DF80E308DF8E8
:107D70000F20274B7BB1AFF3008080F00100C0B231
:107D80009DF80E3060F3C7138DF80E30039B23600F
:107D900004200DB0F0BD0120EFE700270397049702
:107DA00005970697ADF81C70F0238DF80C300A2368
:107DB0008DF81330144B93F83C104FF0000261F330
:107DC00003028DF80E2093F83D208DF8182093F8CB
:107DD0003E308DF8193003AE0FCE20606160A26096
:107DE000E360338823823B4639462846FFF7C6FEC8
:107DF0001220CEE74FF0FF30CBE70020C9E700208C
:107E0000C7E70020C5E700BF0C6E0020000000009F
:107E10000000000038B505460C4681F82C208B6820
:107E20008A6B9B1A8B62022381F8303091F83C30C8
:107E300063B1A3684BB1A36A3BB1237BDB090BD1D0
:107E400094F82F10284601F085FC38BD202205212A
:107E5000607BFFF793FEECE794F82E10284601F0C4
:107E600079FCF2E738B505460C46144B1BB1487B4C
:107E7000AFF30080B0B1A368A26B9B1AB3F5007F8B
:107E800028BF4FF400739BB20D4A94F82F10284678
:107E900001F016FC28B90B4B1B6813F0010F00D042
:107EA00000BE38BD002327220721607BFFF766FE56
:107EB000012221462846FFF7ADFFF2E7000000004F
:107EC0000C6C0020F0ED00E0F0B583B005460C46E8
:107ED000CA8A52BA92B252B38B68B3FBF2F292B230
:107EE000D4F8111009BAA66BB6FBF2F7A3689B1B76
:107EF000B3F5007F28BF4FF40073607B0093184BED
:107F000002FB17623944FEF713FE002811DBE0B1D3
:107F100083B2134A94F82E10284601F0D1FBE0B941
:107F2000104B1B6813F0010F17D000BE15E00022A4
:107F3000D6E7002333220321607BFFF71FFE0122D7
:107F400021462846FFF766FF07E094F82E1000222E
:107F500000921346284601F097FA03B0F0BD00BF27
:107F60000C6C0020F0ED00E02DE9F04182B080467D
:107F70000C461546CA8A52BA92B252B38B68B3FB0A
:107F8000F2F292B2D4F8111009BAA66BB6FBF2F76E
:107F9000607B00951F4B02FB17623944FEF7E0FD42
:107FA000071E18DBAF4225D2002F07DDA36B3B4431
:107FB000A3631848EA1BC11924F03EFB94F82F1064
:107FC00000230093EA1B404601F05EFA02B0BDE8D0
:107FD000F0810022D6E7A36B1D44A5630023332262
:107FE0000321607BFFF7CAFD012221464046FFF7CF
:107FF00011FFEBE7A36B1D44A563636B9D4203D3A5
:10800000022384F83030E1E721464046FFF72AFF9B
:10801000DCE700BF0C6C002008B5402200210248BC
:1080200024F023FB08BD00BF0C6E002008B54022E1
:108030000021024824F019FB08BD00BF0C6E00208F
:108040004B79082B01D0002070478B79062B01D08B
:1080500000207047CB79502B01D000207047162AA2
:1080600007D8204B1B6813F0010F32D000BE002050
:10807000704710B582B004468A781B4B83F82D20D8
:10808000087803F12E0201922F33009302231A463F
:108090000144204601F04CFA38B9124B1B6813F02A
:1080A000010F18D000BE02B010BD0F49002381F8A7
:1080B00030301F230A4691F82F10204601F000FBB4
:1080C00058B9084B1B6813F0010F08D000BE1720E9
:1080D000E9E7002070470020E5E71720E3E71720D5
:1080E000E1E700BFF0ED00E00C6E0020002940F059
:1080F000A58030B583B014460546137803F07F029F
:10810000022A07D003F06003202B65D00023184615
:1081100003B030BD6278012AF4D16288002AF1D11F
:10812000A188C9B2494B93F83030042B0BD0474A91
:1081300092F82E0088420AD0444A92F82F408C428E
:1081400020D00123E3E701F005FB0123DFE7022B49
:1081500001D00123DBE79368916B5B1A93620323E1
:1081600082F830300D2320320146284601F0A8FA6B
:1081700003460028CBD1364A126812F0010FC6D050
:1081800000BEC4E70BB10123C1E72146284601F038
:10819000D3FA18B1002353B90123B8E72146284682
:1081A00001F020FB08B90123F5E70023F3E7274995
:1081B000002381F830301F230A4691F82F102846FB
:1081C00001F07EFA03460028A1D1214A126812F07C
:1081D000010F9CD000BE9AE76378FE2B10D0FF2BD6
:1081E0002FD163887BBBE3880BB100238FE717484F
:1081F000FFF780FC2146284601F046FE012386E772
:10820000638813B9E388012B01D000237FE78DF841
:108210000730104B1BB1FEF7EBFB8DF807009DF804
:108220000730002BF1D0013B02AA02F8013D0123E7
:108230002146284601F044FE012368E70123184641
:108240007047002363E7002361E700BF0C6E002046
:10825000F0ED00E0F169020070B50446A44890F822
:108260003000012800F0CA8058B1032800F00A81CC
:108270009F4B93F83030022B00F0508101231846B9
:1082800070BD9B4A92F82F00884201D00123F6E787
:108290001F2B03D11268974B9A420FD0944D0423A1
:1082A00085F8303095F82E10204601F053FA95F8F5
:1082B0002F10204601F04EFA0023E0E78C4B8E4A47
:1082C0001A625A685A6200229A6283F82C200121AD
:1082D00083F830109D685D639A63DE7B282E10D092
:1082E0002A2E0ED0002D38D0814B1B7BDB0934D1D8
:1082F000B5F5007F21D901227D492046FFF78AFD8F
:10830000B6E77B48FFF702FC024638B985B1282E54
:1083100009D077492046FFF7A5FDA9E77449204613
:10832000FFF778FDA4E772492046FFF7CDFD9FE7F0
:108330006F4B022283F830209AE7ABB26F4A0146B6
:10834000204601F0BDF90346002891D16C4A12681D
:1083500012F0010F93D000BE91E765484FF400730F
:10836000664A00F10F01407BFFF714FC00280ADB8E
:10837000002816DB08BB5E4B9B68C3B95C4B02222E
:1083800083F8302074E75A4B93F83C30002BEFD140
:108390005748838E594A00F10F01407BFEF7B4FB2A
:1083A000E6E7012252492046FFF734FD60E701224B
:1083B0004F492046FFF72EFD5AE74D4B9B682BB9DE
:1083C00001224B492046FFF725FD51E7834228BF94
:1083D000034647494B639BB2484A91F82E1020460A
:1083E00001F06EF9034600287FF442AF444A126858
:1083F00012F0010F3FF443AF00BE40E73C4AD27B8E
:10840000282A12D02A2A20D039498A6B13448B6338
:108410000B7BDB091FD0364B9A6B5B6B9A4229D3DF
:10842000334B022283F8302022E731498A6B134410
:108430008B634A6B934203D3022281F8302017E703
:108440002B492046FFF740FD12E71A4628492046EF
:10845000FFF78AFD0CE708468B8E284A0F31407BD8
:10846000FEF752FB0028D6DA012221492046FFF709
:10847000D1FCD0E7224B1B6813F0010F3FF4F8AE9C
:1084800000BEF5E61A4A92F82E208A427FF4F0AE3A
:108490000D2B7FF4EDAE164BDB7B282B0AD02A2B5D
:1084A00034D0184B63B1124B03F10F01587BAFF37B
:1084B000008005E0144B1BB10D4B587BAFF30080DF
:1084C0000B49002381F830301F230A4691F82F1002
:1084D000204601F0F5F8034600287FF4C9AE084AAB
:1084E000126812F0010F3FF4CAAE00BEC7E600BF2B
:1084F0000C6E002055534243555342530C6C0020E0
:10850000F0ED00E000000000000000001E4B002B1A
:10851000D6D01E4B587BFEF73BFBD1E71B4B93F8A5
:108520002E10204601F05EF9034600287FF4A7AE26
:10853000164A9368926B934203D91449097BC9097F
:1085400019D19B1A11498B62032381F830300D2316
:1085500001F1200291F82E10204601F0B1F80346F7
:1085600000287FF48CAE0A4A126812F0010F3FF423
:1085700086AE00BE83E6054B93F82E10204601F030
:10858000E9F801237BE600BF916B02000C6E00202E
:10859000F0ED00E010B504468178002001F0CCF841
:1085A00000B110BD201D00F098FB3F28F9D94023F1
:1085B00004F5AE72A178002001F082F8F1E7000026
:1085C00038B504464178002001F0B6F810B1002318
:1085D000184638BD04F5CE754022294604F1200026
:1085E00000F08DFB034608B90123F1E72A466178C4
:1085F000002001F065F803460028E9D1034A12681B
:1086000012F0010FE4D000BEE2E700BFF0ED00E0A1
:108610002DE9F04182B04FF4EE7200211F4824F0A2
:1086200024F8002616B102B0BDE8F0811B4D4FF4CE
:10863000EE7404FB06F404F1380129442F194FF0BD
:108640000008CDF80080012340220431381D00F0DD
:10865000F5FA04F17801294404F12000CDF80080F6
:10866000012340220431284400F0E8FA04F1B80163
:1086700029440431012018F0C8F9C7F81880F861BE
:1086800004F5847129440431012018F0BEF978639F
:10869000C7F838800136F6B2C4E700BF4C6E002040
:1086A00070B5002404B170BD094E4FF4EE7505FBA2
:1086B00004F5701900237351043000F043FB05F1F9
:1086C0002000304400F03EFB0134E4B2EAE700BF92
:1086D0004C6E00204B79FF2B01D0002070472DE914
:1086E000F04182B00C780C44A71800236BB1002530
:1086F000002D55D00E4680468B782B700A79EAB94A
:10870000A01B80B202B0BDE8F0811D46274A4FF49D
:10871000EE7606FB0326727832B9244E4FF4EE72E1
:1087200002FB0362927812B10133DBB2DEE74FF451
:10873000EE7202FB0565DBE723781C446378052BAA
:1087400001D0BC42F8D36B1C0193AB1C00930223F5
:108750002146404600F0ECFE30B9154B1B6813F083
:10876000010F1FD000BECDE73379C3EBC3031C4418
:10877000A97831B96B78002BC2D02846FFF720FFCB
:10878000BEE7402305F5AE72404600F099FF002891
:10879000F0D1074B1B6813F0010F05D000BEB1E705
:1087A0000020AFE70020ADE70020ABE74C6E0020D3
:1087B000F0ED00E070B5164E002434BBB07888426E
:1087C00007D075788D4204D00134E4B206F5EE7618
:1087D000F3E7884204D073788B4211D0012015E072
:1087E0009AB206F5AE71301D00F0A7FA094B13B12D
:1087F0002046AFF300803046FFF7CCFE012005E0B5
:108800003046FFF7DDFE012000E0002070BD00BF14
:108810004C6E0020000000000A4492B28A4202D34B
:1088200083899A4202D94089024492B21046704725
:1088300010B404468A4204D88B1A98B2A38998428D
:1088400004D9891A89B26089081A80B25DF8044B8C
:108850007047838801E0C91A89B28B42FBD9084668
:108860007047F8B504460F4611461D46D31A9BB211
:10887000AA4202D242899B1A9BB2A6889E4205D286
:1088800032462046FFF7D4FF208233460BB9002042
:10889000F8BD29462046FFF7DCFF2168E3881A4629
:1088A00003FB0011384623F0BCFE0120F0E710B5B1
:1088B00082B00446900803E051F8040B206018468B
:1088C000431E9BB20028F7D112F0030201D102B07F
:1088D00010BD02A8002340F8043D23F0A2FE019B36
:1088E0002360F4E72DE9F04383B007460E469DF878
:1088F00028C08088C01A80B2151AF98811FB00F8C8
:108900001FFA88F811FB05F5ADB23C6801FB034482
:10891000BCF1000F05D0BCF1010F17D003B0BDE8CA
:10892000F083904206D301FB02F22146304623F049
:1089300078FEF3E742462146304623F072FE2A468F
:10894000396806EB080023F06CFEE7E790421AD284
:1089500028F003091FFA89F94A4621463046FFF7F5
:10896000A6FF4C4418F0030132D0C1F104039BB2BE
:10897000AB4228BF2B46DBB2ED1AADB202A80022F3
:1089800040F8042D0CE011FB02F292B22146304671
:10899000FFF78DFFC2E721780170013011460134E5
:1089A0004A1ED2B20029F6D1396804E00B78037070
:1089B0000130134601315A1ED2B2002BF6D1019B71
:1089C0003360002DAAD02A463046FFF770FFA5E796
:1089D0003968F6E72DE9F04182B00546884617462A
:1089E000BDF820105C1AA4B28B4202D24289A41AAC
:1089F000A4B2AE88A64208D2324619462846FFF7EE
:108A000017FF2882298A89B2344674B1BC4200D348
:108A10003C462846FFF71DFF9DF82430009303468F
:108A2000224641462846FFF75DFF204602B0BDE8DA
:108A3000F081F0B583B004460D4616461F468069A6
:108A400018B14FF0FF3118F0D7F8E389228A019767
:108A50000092324629462046FFF7BCFF0546218A90
:108A600002462046FFF7D8FE2082A06920B10023ED
:108A70001A46194617F024FF284603B0F0BD10B57A
:108A800082B0940803E00C6840F8044B1C46631E57
:108A90009BB2002CF7D112F0030201D102B010BD3D
:108AA0000B6802A941F8043D23F0BBFDF6E72DE970
:108AB000F04383B007460E469DF828C08188C91A46
:108AC00089B2551AC08810FB01F81FFA88F810FB0C
:108AD00005F5ADB23C6800FB0344BCF1000F05D0C6
:108AE000BCF1010F17D003B0BDE8F083914206D36B
:108AF00000FB02F23146204623F093FDF3E74246A5
:108B00003146204623F08DFD2A4606EB08013868E1
:108B100023F087FDE7E791421BD228F003091FFAF3
:108B200089F94A4631462046FFF7A9FF4C4418F020
:108B3000030135D0C1F104039BB2AB4228BF2B46E1
:108B4000DBB2ED1AADB232680DF1080C4CF8042D11
:108B50000EE010FB02F292B231462046FFF78FFF83
:108B6000C1E79CF8001021700CF1010C1146013492
:108B70004A1ED2B20029F4D1386806E09CF80030D1
:108B800003700CF1010C134601305A1ED2B2002BB7
:108B9000F4D1002DA7D02A463146FFF770FFA2E797
:108BA0003868F6E72DE9F04383B01746002A40D035
:108BB000044688469946406918B14FF0FF3118F0D5
:108BC0001BF8E689B6B2238A9BB2227A32BBA5880B
:108BD000F21A92B29E4202D26389D21A92B2AD1AAE
:108BE000ADB2BD4228BF3D4631462046FFF731FEBB
:108BF000CDF8009003462A4641462046FFF757FF2E
:108C00002A4631462046FFF707FEE081606988B1B9
:108C100000231A46194617F053FE0BE0A588BD4203
:108C200005D87F1BE28802FB07881E46DCE73D462D
:108C3000DAE71546284603B0BDE8F083B2F5004FE9
:108C40002ED8F8B51F4615460C460646406918B1A1
:108C50004FF0FF3117F0D0FFB06918B14FF0FF317E
:108C600017F0CAFF3460B580F7809DF81830337272
:108C70006B00013B9BB2B381DB4373810023F38123
:108C80003382706918B11A46194617F019FEB06997
:108C900040B100231A46194617F012FE0120F8BD14
:108CA000002070470120FAE7C18989B2028A92B296
:108CB0008B1A9BB2914202D242899B1A9BB2808846
:108CC000984228BF18467047C28992B2038A9BB265
:108CD0009A4214BF00200120704710B4C18989B2A4
:108CE000028A92B284888B1A9BB2914202D2408946
:108CF0001B1A9BB2E01A80B25DF8044B704708B5AE
:108D00000023FFF796FE08BD38B504460D4680697E
:108D100018B14FF0FF3117F06FFFE289238A29461F
:108D20002046FFF79EFD0546A06920B100231A46A4
:108D3000194617F0C5FD284638BD08B50023FFF7D2
:108D400031FF08BD10B50446406918B14FF0FF313E
:108D500017F052FFA06918B14FF0FF3117F04CFF28
:108D60000023E3812382A3885B00013B9BB2A381A4
:108D7000DB436381606920B100231A46194617F06E
:108D80009FFDA06920B100231A46194617F098FDEF
:108D9000012010BD38B504460D46406918B14FF0AA
:108DA000FF3117F029FFA06918B14FF0FF3117F01C
:108DB00023FF2572606920B100231A46194617F077
:108DC0007FFDA06920B100231A46194617F078FDEF
:108DD000012038BD38B50546002411E0E31ADBB2A6
:108DE000042B07D803EB4303DA001B4B134402E0C8
:108DF0002346F5E700235B68284698470134E4B230
:108E0000164B1B785A1D94420BDA154A002AEFD0F4
:108E1000A342E3D904EB4403DA00124B1B6813446A
:108E2000E9E7114C37220021204623F01EFC4FF0C9
:108E3000FF33C4F80330C4F80730C4F80B30C4F86B
:108E40000F30C4F81330C4F81730C4F81B30C4F81E
:108E50001F30A4F8233038BD34F804002C700020F3
:108E600000000000287000208070002008B5FFF787
:108E7000B1FF01F069F808BD70B505460C4616460D
:108E8000C86801F06BF8E36832460021284698472D
:108E900070BD00002DE9F04F83B001900139C8B2D8
:108EA000FDF75EFD18B182464378022B0AD0594B7C
:108EB0001B6813F0010F00F0A28000BE002003B079
:108EC000BDE8F08FC279C2F3401053490B7860F3CC
:108ED0000413C2F3801262F345130B700AF1090701
:108EE000BAF802309A446CE097F803B03B781F441C
:108EF0006EE0484B1B6813F0010F00F0828000BE4B
:108F00000020DCE7651BEDB2042D23D805EB4505F9
:108F1000424B03EBC505AB6842463946019898477A
:108F20000646082801D9804516D20134E4B2A1468C
:108F30003B4B1D786B1D9C423EDA3A4B43B1A54238
:108F4000E0D904EB4405384B1B6803EBC505E2E7A9
:108F50002546D9E70025DEE7BBF1010F01D000224D
:108F600011E0AB68314A934205D0314A9342F6D1C1
:108F70004FF0020BF3E74FF0020BF6E726490B44E4
:108F8000DC700132D2B293450FD9BB781344DBB207
:108F900021491944C978FF29F0D01E4B1B6813F0F2
:108FA000010F30D000BE002089E723463246394603
:108FB000204801F011FF3744194B1B7805339945C0
:108FC0000FDA574515D27B780B2B8DD04FF0010B64
:108FD0007B78042B8DD1AAEB07081FFA88F80024B0
:108FE000A5E70C4B1B6813F0010F0ED000BE00204C
:108FF00065E7114B5BB1AFF3008001205FE7002014
:109000005DE700205BE7002059E7002057E70120DB
:1090100055E700BFF0ED00E08070002034F8040058
:109020002C70002000000000287000201170020049
:10903000FD780200937000200000000038B505465E
:109040000C464888020AC0B2531E0E2B55D8DFE8E2
:1090500003F008253D545448255454545454545452
:109060001100FDF779FC122302462146284600F044
:1090700027FF38BD294B002B41D0FDF7EFFD0246FD
:1090800030B9274B1B6813F0010F3AD000BEF0E750
:1090900043882146284600F013FFEAE7022A0BD056
:1090A000204B83B3AFF3008048B91D4B1B6813F00E
:1090B000010F2AD000BEDCE7FDF752FCF4E743883D
:1090C00002462146284600F0FBFED2E7A188FDF7C4
:1090D0004DFC0246D8B103782146284600F0F0FE48
:1090E000C7E7114BABB1AFF30080024698B10378EC
:1090F0002146284600F0E4FEBBE70020B9E7002047
:10910000B7E70020B5E70020B3E70020B1E7002073
:10911000AFE70020ADE70020ABE700BF5D6C0200C9
:10912000F0ED00E00000000000000000024B587865
:10913000003018BF0120704780700020024B187863
:10914000C0F38000704700BF80700020014B18788A
:10915000704700BFB770002070B582B0304B1C78EC
:1091600014B1204602B070BD0546372200212D48BB
:1091700023F07BFA2C49012017F047FC2B4B186099
:10918000A0B12B4B188859885A68002600960833DE
:1091900017F05FFB274B186078B1274B23B12748A6
:1091A000AFF30080264B186000241AE0254B1B68A3
:1091B00013F0010FD5D000BED3E7224B1B6813F08C
:1091C000010FCED000BECCE7E31ADBB2042B1AD8D5
:1091D00003EB4303DA001C4B13441B68984701342C
:1091E000E4B2164B1B785A1D94420EDA124A42B171
:1091F000A342E9D904EB4403DA00114B1B68134482
:10920000EBE72346E2E70023E7E7284601F024F8EE
:10921000284601F023F80124014B1C70A1E700BF90
:10922000B77000208070002030700020B8700020DF
:10923000B8600020BC700020000000002C700020EE
:1092400028700020F0ED00E034F8040010B584B080
:109250004378023B032B00F2B280DFE803F0028088
:109260002E58664B1A786FF300021A701A786FF353
:1092700041021A7000245C701A7864F382021A703A
:109280005F4B1C6889B1002301AA0146204617F0F4
:10929000CBFB019BB3B15B4B4FF080525A6040BF98
:1092A000BFF34F8FBFF36F8F0CE000234FF0FF32FF
:1092B0000146204617F004FB04E0504B1B7813F0E6
:1092C000010F01D104B010BD4C4A137843F00403E0
:1092D00013704B4B1C6891B1002301AA0146204634
:1092E00017F0A2FB019B002BECD0464B4FF08052B5
:1092F0005A6040BFBFF34F8FBFF36F8FE2E7002389
:109300004FF0FF320146204617F0DAFADAE73B4B1E
:109310001B7813F0010FD5D0384A13786FF382030E
:109320001370374B1C6891B1002301AA01462046F7
:1093300017F07AFB019B002BC4D0324B4FF08052C8
:109340005A6040BFBFF34F8FBFF36F8FBAE7002360
:109350004FF0FF320146204617F0B2FAB2E7274B32
:109360001B7813F0040FADD0244A13786FF38203F7
:109370001370002301930293039303788DF8043054
:1093800005238DF805301E4B186889B100236A4605
:1093900001A917F049FB009B002B93D0194B4FF00C
:1093A00080525A6040BFBFF34F8FBFF36F8F89E782
:1093B00000234FF0FF3201A917F082FA82E7104B29
:1093C0001C6899B1002301AA0146204617F02CFB26
:1093D000019B002B3FF476AF0A4B4FF080525A604E
:1093E00040BFBFF34F8FBFF36F8F6BE700234FF08A
:1093F000FF320146204617F063FA63E780700020D1
:10940000BC70002000ED00E000B585B00023CDF871
:109410000630CDF80A30ADF80E308DF804008DF826
:109420000510114601A8FFF711FF05B05DF804FB18
:1094300000B585B00023CDF80630CDF80A30ADF880
:109440000E308DF8040001238DF805308DF80810DA
:10945000114601A8FFF7FAFE05B05DF804FB00B560
:1094600085B00023CDF806308DF8040006238DF872
:10947000053002AB0868496803C3114601A8FFF72D
:10948000E5FE05B05DF804FB10B584B00024CDF80E
:109490000640ADF80A408DF8040007208DF805005D
:1094A0008DF8081003928DF809309DF8181001A866
:1094B000FFF7CCFE04B010BD00B585B000230193CA
:1094C00008238DF8053002900391114601A8FFF79B
:1094D000BDFE05B05DF804FB38B58B7803F07F0363
:1094E000082B08D9104B1B6813F0010F19D000BED0
:1094F0000023184638BD0C4605460C4B997820468B
:1095000001F012FC034630B9074A126812F0010F4D
:10951000EFD000BEEDE72146284600F065FF034688
:10952000E7E70023E5E700BFF0ED00E080700020F2
:109530002DE9F04780460C4616461F46DDF8209080
:10954000DDF824A0002513E0184B1B6813F0010F71
:1095500029D000BE002323E0144A126812F0010F44
:109560001ED000BE1CE08AF8003023781C44013570
:10957000AE4214DD6378052BE6D1E37803F00303F4
:10958000BB42E1D121464046FFF7A6FF0346002833
:10959000E2D0A378DA09E6D189F80030E5E70123C3
:1095A0001846BDE8F0870023FAE700BFF0ED00E0C1
:1095B00070B501F07F05CC09224B03EB4503234432
:1095C00093F8250010F0010639D11E4B03EB45033B
:1095D000234420335B7913F0040F31D14FF0FF3176
:1095E000194B186817F008FB164B03EB450323448F
:1095F00020335B7913F0010F0AD1124B03EB4503C3
:10960000234420335B7913F0040F16D0002300E0CD
:1096100000231E464BB10B4B03EB45052C4494F83D
:10962000253043F0040384F8253000231A461946F8
:109630000548006817F044F902E00123E9E7002635
:10964000304670BD80700020B870002070B501F009
:109650007F05CC094FF0FF31174B186817F0CCFA93
:10966000164B03EB4503234420335B7913F0010FC2
:109670000AD1124B03EB4503234420335B7913F0EB
:10968000040F17D1002300E000231E464BB10B4905
:1096900001EB45010C4494F825306FF3820384F804
:1096A000253000231A4619460348006817F008F9C8
:1096B000304670BD0123E8E7B870002080700020BC
:1096C000F8B501F07F06CD09194C04EB46042C4493
:1096D0002034647914F0010F08D0164B1B6813F086
:1096E000010F22D000BE00231846F8BD104C04EB39
:1096F00046042C4494F8257047F0010784F825703F
:10970000203400F05DFF03460028EDD162796FF34D
:109710000002627162796FF382026271054A126817
:1097200012F0010FE0D000BEDEE70023DCE700BF4F
:1097300080700020F0ED00E001F07F02044B03EBAD
:10974000420303EBD11191F8250000F001007047AE
:109750008070002038B501F07F05CC090E4B03EB7B
:109760004503234420335B7913F0020F00D038BD4A
:1097700000F08CFF084B03EB4503234493F82520AE
:1097800042F0020283F8252093F8252042F00102DE
:1097900083F82520EBE700BF8070002038B501F08A
:1097A0007F05CC090E4B03EB4503234420335B7943
:1097B00013F0020F00D138BD00F09EFF084B03EB01
:1097C0004503234493F825206FF3410283F82520B5
:1097D00093F825206FF3000283F82520EBE700BF04
:1097E0008070002001F07F02044B03EB420303EB87
:1097F000D11191F82500C0F340007047807000201F
:109800002DE9F04182B005460C46002000F0A6FB91
:10981000237803F06003602B14D0402B1ED02278F5
:1098200002F01F02012A00F0F1802AB3022A00F0A0
:109830003781A34B1B6813F0010F00F0CE8100BEEF
:10984000002307E09E4B1B6813F0010F00F0A98175
:1098500000BE0023184602B0BDE8F081994B002BF2
:1098600000F0A181184600F079FB2246002128462D
:10987000FDF7F8F90346EDE7202B0AD0002B30D096
:109880008F4B1B6813F0010F00F0958100BE002381
:10989000E0E7A388DBB20F2B00F287818A4A1344EA
:1098A000DB788A4AA2B18A4A127893420ED203EB3D
:1098B0004303DA00874B19681144002900F07981CD
:1098C00022462846FFF7D8FA0346C3E79B1ADBB2C5
:1098D000042B00F26C8103EB4303DA007E49114450
:1098E000EBE76378092B00F28880DFE803F074640B
:1098F000865486054E861420204600F035FB61888C
:10990000C9B2284600F05EFD6F4A137843F00203A7
:10991000137001239EE76C4B5B7802AA02F8023DAC
:1099200001232146284600F0CBFA012392E76688FE
:10993000F6B2654B5B78DBB2B34203D0624B5B7827
:1099400043B99EB9604B5E702146284600F09CFAF0
:1099500001237FE7284600F0E5FD5B4F97F8028082
:109960002846FFF737FA87F80280EAE731462846AB
:10997000FFF790FA03460028E4D1514A126812F02A
:10998000010F3FF467AF00BE64E721462846FFF7AA
:1099900055FB03465EE76388012B01D0002359E79E
:1099A000494A137843F0080313702146284600F013
:1099B0006BFA01234EE76388012B01D0002349E7AE
:1099C000414B1A786FF3C3021A702146284600F003
:1099D0005BFA01233EE73C4B1A78930803F002033D
:1099E000C2F34012134302AA22F8023D0223214689
:1099F000284600F065FA01232CE7314B1B6813F071
:109A0000010F00F0DA8000BE002323E7A388DBB259
:109A10000F2B00F2D4802C4A1344DB782B4A5AB324
:109A20002B4A1278934225D203EB4303DA00294BE9
:109A300019681144002900F0C68022462846FFF725
:109A40001BFA034600287FF405AF227812F0600F5E
:109A50007FF400AF62780A3A012A3FF6FBAE00F0CD
:109A60007DFA63780A2B10D02146284600F00CFAC4
:109A70000123EFE69B1ADBB2042B00F2A28003EB7A
:109A80004303DA0014491144D4E702AA002302F880
:109A9000023D01232146284600F012FA0123D9E6AF
:109AA000A188C9B201F07F00CE09082816D9044B5D
:109AB0001B6813F0010F00F0888000BE0023C9E688
:109AC000F0ED00E0656C02008070002000000000F6
:109AD0002C7000202870002034F80400404A02EB6B
:109AE00040023244D27C3F48A8B13F4800788242CD
:109AF0000FD202EB4202D0003C4A16680644A3B1E2
:109B0000002E64D0224631462846FFF7B5F90346B9
:109B1000A0E6121AD2B2042A05D802EB4202D00003
:109B2000334E0644EBE70026E9E76378012B17D0B4
:109B30004BB1032B14D02F4B1B6813F0010F4AD0ED
:109B400000BE002386E62846FFF74CFE02AA22F854
:109B5000020D02232146284600F0B2F9012379E6DE
:109B6000628822B9012B18D02846FFF7F3FD86B38F
:109B7000224631462846FFF77FF9002000F0EEF933
:109B8000174B93F8263013F001037FF463AE2146A0
:109B9000284600F079F901235CE62846FFF7FEFD30
:109BA000E5E7002356E6002354E6002352E60023AF
:109BB00050E600234EE600234CE600234AE600234D
:109BC00048E6002346E6002344E6002342E600235D
:109BD00040E601233EE600233CE600233AE600BFD0
:109BE00080700020000000002C70002028700020F1
:109BF00034F80400F0ED00E010B584B001F08EF808
:109C000048B904B010BD9DF80400FFF72FF99DF886
:109C100008207E4B9A704FF0FF3201A97C4B1868E8
:109C200016F062FF0028ECD09DF80530013B072BB1
:109C300000F2E38001A252F823F000BF079C02006B
:109C40005D9C0200E99D0200639D0200859D02006B
:109C5000719C0200CF9C0200ED9D02009DF8040063
:109C6000FFF704F96B4B002BD5D0AFF30080D2E7A0
:109C7000664B1A7842F001021A7093F825206FF3B0
:109C8000000283F8252093F825206FF3820283F8E1
:109C9000252093F826206FF3000283F8262093F8FE
:109CA00026206FF3820283F8262002A99DF8040083
:109CB000FFF7A6FD0028AED100219DF8040000F0BA
:109CC000E5FC80219DF8040000F0E0FCA3E79DF88E
:109CD000081001F07F00CC094C4B03EB40032344F8
:109CE00093F825206FF3000283F8252093F82520B0
:109CF0006FF3820283F8252088B1444B03EB4003C5
:109D00002344DB7C444AA2B1444A127893420ED2E7
:109D100003EB4303DA00424B1B68134410E0039B40
:109D20009DF809209DF8040000F02CF973E79B1AB8
:109D3000DBB2042B0DD803EB4303DA00394B134499
:109D40003BB11C69039B9DF809209DF80400A047C6
:109D500061E7354B1B6813F0010F3FF452AF00BEB3
:109D60004FE72A4B1B7813F0010F3FF454AF2F4BF2
:109D7000002B3FF450AF254B1878C0F3C000AFF371
:109D8000008048E7214B1B7813F0010F3FF443AFED
:109D9000274B002B3FF43FAFAFF300803BE7E31AC4
:109DA000DBB2042B1ED803EB4303DA001D4B134434
:109DB0005B6913B19DF8040098470134E4B2174B76
:109DC0001B785A1D9442BFF626AF134A42B1A342F4
:109DD000E5D904EB4403DA00114B1B681344E7E7B1
:109DE0002346DEE70023E3E70024E8E7029B002B9D
:109DF0003FF411AF039898470DE70B4B1B6813F026
:109E0000010F3FF408AF00BE05E700BF80700020DF
:109E1000BC70002000000000000000002C7000203A
:109E20002870002034F80400F0ED00E0000000008D
:109E300000000000F8B50746114B9E89DD89741BB0
:109E4000A4B2402C28BF402493F90030002B08DB3B
:109E50000021AE4211D00B4A23463846FFF730FCB2
:109E6000F8BDAE4201D18021F3E72246044B996848
:109E7000044822F0D6FB8021EBE70022ECE700BF8C
:109E8000807100209471002038B505460C460B4BBC
:109E90001A460868496803C200229A60DA819A81EA
:109EA00094F90030934206DB802100231A462846AD
:109EB000FFF706FC38BD1146F7E700BF80710020B0
:109EC000F8B507460C461E4D2E460868496803C67D
:109ED000AA600021E981E1888B4228BF0B46AB8153
:109EE000E188A9B103B15AB13846FFF7A3FF034691
:109EF00000BB144A126812F0010F1BD000BE19E01B
:109F0000104B1B6813F0010F18D000BE002311E0A6
:109F100094F90030002B0FDB802100231A463846CD
:109F2000FFF7CEFB034628B9064A126812F0010F6C
:109F300000D000BE1846F8BD0021EEE70023F9E787
:109F400080710020F0ED00E0034B00221A605A609F
:109F50009A60DA601A61704780710020014B1861C5
:109F6000704700BF807100200146054B1A4600680B
:109F7000496803C200229A60DA819A81704700BF63
:109F80008071002038B505461C463A4B1B78DB092A
:109F9000B3EBD11F18D03CB1374B1B6813F0010F46
:109FA00062D000BE00230DE0344B13B13149AFF352
:109FB0000080304B1B69002B58D02E4A02212846C6
:109FC00098470123184638BD2A4B93F90030002BDF
:109FD00007DB284B986800284AD02246284922F0FF
:109FE00020FB244AD38923449BB2D3819168214426
:109FF0009160D288934201D03F2C28D81D4B1B6919
:10A0000023B11C4A012128469847B0B1194B93F956
:10A010000030002B0FDB802100231A462846FFF773
:10A020004FFB03460028CDD1134A126812F0010FEE
:10A03000C8D000BEC6E70021EEE70021284600F0A8
:10A0400025FB8021284600F021FB0123BAE72846A2
:10A05000FFF7F0FE03460028B4D1074A126812F059
:10A06000010FAFD000BEADE70023ABE70123A9E7A6
:10A070000023A7E780710020F0ED00E00000000061
:10A0800094710020064B1B68064A1268082B01D009
:10A0900000207047032A01D9002070470120704733
:10A0A0003001001034010010064B1B68064A12688C
:10A0B000082B01D000207047032A01D900207047E7
:10A0C000012070473001001034010010074B1A685E
:10A0D00004331B68082A01D000207047013B022B83
:10A0E00001D9002070470120704700BF30010010E7
:10A0F00042DF704743DF704744DF70470123094A5E
:10A1000082F8D8300360BFF36F8FBFF34F8F064BD9
:10A11000984202D0043B984203D1024B002283F8BC
:10A12000D8207047D471002050700240074B93F83C
:10A13000D83033B9064B1B6813F0010F05D000BEB1
:10A140007047024B002283F8D8207047D47100205A
:10A15000F0ED00E012DF704700B583B043F2040376
:10A160001A68164B9A420DD04FF08042D2F80C3448
:10A1700003F00103D2F80C2412F4803F17D0D3B9B6
:10A18000002015E002A8002300F8043DFFF7E2FFDD
:10A190009DF80430002BE7D002A8002340F8043DCE
:10A1A000FFF7AAFF0198003018BF012000E000204F
:10A1B00003B05DF804FB0120FAE700BFDBE5B15115
:10A1C00000B583B0FFF7C8FF78B943F204031A68FB
:10A1D0000E4B9A420CD00E4B00221A601B68019362
:10A1E000019B4FF0804301221A6003B05DF804FB2D
:10A1F00002A8002300F8043DFFF7ACFF9DF80430EF
:10A20000002BE8D0FFF774FFEFE700BFDBE5B151AB
:10A210000001004043F204031A680D4B9A4203D038
:10A220000C4B01221A60704700B583B002A80023CE
:10A2300000F8013DFFF78EFF9DF807302BB9054B65
:10A2400001221A6003B05DF804FBFFF753FFF9E742
:10A25000DBE5B1510400004070470000014B802253
:10A260005A60704700E100E0044B8022C3F884206C
:10A27000BFF34F8FBFF36F8F704700BF00E100E067
:10A2800038B50446174B5B68C3F308033BB9EFF3DB
:10A29000108323B9144B5B6813F0800F1FD1134B4D
:10A2A00093F8D8302BB1012221461148FFF704F969
:10A2B00038BD2046FFF722FFFAE70020FFF7CEFF68
:10A2C000002DF5D10020FFF7CFFF084B93F8D830D1
:10A2D000002BF2D12046FFF711FF0125EDE7002505
:10A2E000EEE700BF00ED00E000E100E0D4710020E7
:10A2F00081A2020070B5082813D11B4BD3F8C034DB
:10A3000013F4803F2FD100EB4000C2001749895859
:10A31000154AC2F8A017C2F8A4371548FFF7B0FFD6
:10A3200021E0114B00F5947253F8222092B20F4DA8
:10A3300041000144CC002E19B188F688891B89B2EE
:10A340008A4228BF0A462E5981000D18AC002546C6
:10A350001C44C4F800672B44C3F80427054B03EBE7
:10A360008000FFF78DFF70BD00700240D4710020A7
:10A37000487002402870024070B543000344D90081
:10A380000D4A0A44138A518A5B1A9BB2918A8B4206
:10A3900028BF0B46D668094A84002518A9000D4637
:10A3A0001144C1F800662A44C2F804360448204427
:10A3B000FFF766FF70BD00BFD4710020007002403F
:10A3C00004700240074BD3F80014D3F800240A436A
:10A3D000C3F800240022C3F858214FF48002C3F8C8
:10A3E0000423704700700240F0B48B7803F07F02C2
:10A3F000DE098D88C5F30A0574003444A00002EB21
:10A400004207FC002044434C20440581C97801F0F8
:10A410000301012930D006BB02F10C04012000FA2F
:10A4200004F43D49C1F80443D1F814459040204359
:10A43000C1F8140502F59472002041F82200364A52
:10A44000C2F8183543F48073C2F80C35BFF36F8F30
:10A45000BFF34F8F0120F0BC7047941C012101FA1B
:10A4600004F42D48C0F80443D0F8104501FA02F274
:10A470002243C0F81025E2E7082A07D0274B1B68C3
:10A4800013F0010F44D000BE0020E4E7FEB9214ADA
:10A49000B2F8D4201AB1204A8021C2F81C151E4AF5
:10A4A0000021C2F85011D2F8002312F4001F02D18B
:10A4B000194AC2F85411184A4FF44011C2F8041353
:10A4C000D2F8141541F48071C2F81415B7E7124A96
:10A4D0000021C2F82C110F4AB2F8C8201AB10E4A56
:10A4E0008021C2F81C150C4AD2F8002312F4001F78
:10A4F00003D1094A0021C2F85411074A0849C2F899
:10A500000413D2F8101541F48071C2F8101596E7C3
:10A510000020A0E7D471002000700240F0ED00E0C0
:10A520000008200038B50446FFF79EFE01231FE017
:10A5300003F10C02012101FA02F2981C81400A4346
:10A540001C49C1F8082301EB83000022426003F19B
:10A550000A0041F82020184D03EB4301C8002918D8
:10A560002A504A608A60CA600A614A610133DBB2DC
:10A57000072BDDD90F4A114BC2F808330023C2F86C
:10A580001C35536293640C48C0F8C030C0F8C43026
:10A59000C0F8C830C0F8CC30C0F8D030C0F8D430E3
:10A5A0000123C2F81435C2F810352046FFF756FED5
:10A5B00038BD00BF00700240D47100200008300098
:10A5C000F0B583B00D4601F07F00CE092A4F74002C
:10A5D0003444A100440004444FEAC40C61447C1894
:10A5E0007A50A3800022E28048B933BB234BD3F8D2
:10A5F0008034C3F3C0139E4221D0012300E0002326
:10A60000FBB9002E35D180B372003244930000EBC9
:10A610004001CA001344184A13449B7A13B37300D1
:10A620001E44B30000EB4001CA001344124A134415
:10A6300000229A72FFF75EFE14E00023E0E7002399
:10A64000DEE70F48FFF71CFE0E4B5B68C3F3080301
:10A65000003318BF0123009300231A4629461846E9
:10A66000FEF712FF012003B0F0BD0748FFF708FE18
:10A67000F8E7FFF781FEF5E7D47100200070024093
:10A680005070024000ED00E04C70024011F07F007D
:10A690001AD0CB0908281AD041F48071144AC2F8A4
:10A6A0001815A3B910B5590019448A0000EB4004ED
:10A6B000E1000C460A440F490A44927A62B9BFF39A
:10A6C0006F8FBFF34F8F10BD094B01225A65BFF347
:10A6D0006F8FBFF34F8F70475A0013449A00224484
:10A6E000044B1A4400239372FFF704FEE7E700BF10
:10A6F00000700240D471002011F07F0319D0C80906
:10A70000082B16D010B40B4AC2F80C1541F4807413
:10A71000C2F80C45C2F8181520B903F5947300214E
:10A7200042F82310BFF36F8FBFF34F8F5DF8044BD8
:10A73000704770470070024010B5184B0122C3F8F3
:10A740001425C3F81025002309E0144A02EB830006
:10A750000021416003F10A0042F820100133072B69
:10A76000F3DD0E4B002159629964C3F85811D3F8F8
:10A770000004D3F800240243C3F80024D3F80023D4
:10A78000C3F80823064AC3F80423064CDC222046FB
:10A7900021F06BFF4023A382238110BD0070024093
:10A7A0000514C001D4710020F0B585B0BA4BD3F8C0
:10A7B000000300231D4601E00133DBB2182B15D83E
:10A7C00020FA03F212F0010FF6D0B44A52F82340F7
:10A7D000002CF1D0012404FA03F10D43002142F8CA
:10A7E0002310BFF36F8FBFF34F8FE5E715F0010F15
:10A7F00040F0828015F4006F09D0A74BD3F8A8363B
:10A800009BB2A74AA2F8D230012382F8D73015F4C0
:10A81000001F16D0A04BD3F8143513F4807F73D1EA
:10A8200000229D4BD3F8103513F4807F7ED09C4BD3
:10A8300093F8D730002B6CD1012203210020FEF7C2
:10A84000E3FD15F4800F22D0934BD3F8004404F4B9
:10A85000E062C3F8002414F4807F6FD114F4806F99
:10A8600012D08D4B0122C3F808259A65D3F8003326
:10A8700013F4001F03D1884B0022C3F85421864BE8
:10A880004FF40012C3F8042314F4007F5ED115F4D2
:10A89000000F2CD0804BD3F88024D2B28DF8082042
:10A8A000D3F88414C9B28DF80910D3F888048DF850
:10A8B0000A00D3F88C048DF80B00D3F890048DF8BF
:10A8C0000C00D3F894048DF80D00D3F898048DF89B
:10A8D0000E00D3F89C348DF80F3012F07F0F01D1A9
:10A8E000052904D0012202A90020FEF7B8FD6D4B16
:10A8F0002B408BBB002446E0FFF71EFF0122002106
:10A900000846FEF795FD75E70820FFF7F3FC0122E6
:10A9100087E7634B002083F8D700B3F8D2200123E8
:10A92000009303468821FEF7AFFD85E7002A83D117
:10A93000594B4FF40012C3F808237DE70122C3F8F6
:10A940002C2504210020FEF75FFD87E70122052169
:10A950000020FEF759FD9AE7FFF7E8FBCAE75049E8
:10A9600043001E18F2000A44D68896800344DA0099
:10A970001144CA8801230093002321461846FEF79C
:10A9800083FD0134E4B2082C2FD804F10C03DBB2B0
:10A9900025FA03F313F0010FF3D0204604EB8402F1
:10A9A000930003F1804303F51C33D3F80837DBB27F
:10A9B0003B4E61002144CA00B718B1581944B15048
:10A9C000FA889BB21A4492B2FA80082CC7D03A890E
:10A9D0009342C4D1FA8892B2BB889A42BFD2002C6B
:10A9E000CFD13148FFF74CFCCBE7304B2B40002B4D
:10A9F00000F09580284BD3F86C64C3F86C64BFF307
:10AA00006F8FBFF34F8F15F4806506D0D3F8803475
:10AA100013F0800F0BD1002700E000274DB11E4B33
:10AA2000D3F8803413F0800F06D0002502E0012710
:10AA3000F4E70025002422E00125FBE701EB810279
:10AA4000930003F1804303F51C33D3F80826D2B2F8
:10AA5000480008444FEAC00C114B6344D8681044C6
:10AA6000D860588A024492B25A825A8A92B21B8A99
:10AA70009A421DD22046FFF77FFC0134E4B2072C36
:10AA800025D8214626FA04F313F0010FD6D1002C65
:10AA9000F3D1002FF1D0D1E70070024000710240E5
:10AAA000D4710020FCFB1F004C7002400004000128
:10AAB00001EB4101CA001B4B13445A8A0123009346
:10AAC000002344F080011846FEF7DEFCD5E70024A1
:10AAD00012E062002244D100124B0B44DA8892B299
:10AAE0009B889A4217D304EB4403DA000D4B1344BE
:10AAF00001229A720134E4B2072C10D804F1100339
:10AB0000DBB226FA03F313F0010FE2D1002CF1D1EE
:10AB1000002DEFD0DDE72046FFF7ECFBEAE705B0BC
:10AB2000F0BD00BFD471002010B5012800F0AA804C
:10AB300010B1022841D010BD694BD3F80035002B6D
:10AB4000F9D1674B4FF48002C3F808234FF4006239
:10AB5000C3F80024BFF36F8FBFF34F8FFFF7B6FA30
:10AB600050B1604B1B6803BB5E4B49F275321A60F3
:10AB70005D49032008601A60FFF796FA50B1594BFF
:10AB80001B68B3B9574B49F275321A605749C02058
:10AB900008601A60524B0122C3F80025BFF36F8F83
:10ABA000BFF34F8FFFF70CFBC5E74F4B03221A6033
:10ABB000E2E74E4BC0221A60ECE7494BD3F804356C
:10ABC000002B52D1464BD3F8003413F4006FF9D068
:10ABD000434B4FF40062C3F80024BFF36F8FBFF301
:10ABE0004F8FFFF761FA58B13E4B1B68002B41D1E4
:10ABF0003C4B49F275321A603C49002008601A60EB
:10AC0000FFF764FA58B1374B1B68002B36D1354B30
:10AC100049F275321A603449002008601A60FFF763
:10AC200031FA50B1324B40F2E3721A6004334022E1
:10AC30001A60BFF36F8FBFF34F8F294A8023C2F88A
:10AC40001C350121C2F804132A4AC2F8843153602A
:10AC5000FFF782FA0028FBD0214B0122C3F804251C
:10AC6000BFF36F8FBFF34F8F65E7FFF775FA0028CB
:10AC7000A8D060E71D4B00221A60C1E71A4B0022E2
:10AC80001A60CCE7164BD3F80035002B3FF453AFD6
:10AC9000134B0024C3F80445BFF36F8FBFF34F8FEE
:10ACA000144A8021C2F88410BFF34F8FBFF36F8F17
:10ACB000D3F80023C3F80823C3F80045BFF36F8F10
:10ACC000BFF34F8FFFF7A6FA0B4B5A68C2F3080287
:10ACD000121B18BF012202212046FEF795FB2AE72E
:10ACE0000070024000EC064014ED064014EC0640F3
:10ACF0000078024000E100E000ED00E008B500202F
:10AD0000FEF72AFA034628B9034A126812F0010F27
:10AD100000D000BE184608BDF0ED00E008B5FEF713
:10AD200015FA00B1012008BD8388C3F30A02C37875
:10AD300003F00303022B13D029D8012B37D10229AA
:10AD40000BD040F2FF33934233D2224B1B6813F0F7
:10AD5000010F30D000BE002070474FF48063F2E74F
:10AD6000022909D0402A2CD91A4B1B6813F0010F75
:10AD700029D000BE00207047B2F5007F1DD0154BD2
:10AD80001B6813F0010F1AD000BE00207047022983
:10AD90000AD04023934218D20E4B1B6813F0010FC8
:10ADA00015D000BE002070474FF48063F2E700200A
:10ADB0007047012070470020704701207047002035
:10ADC0007047012070470020704701207047002025
:10ADD000704700BFF0ED00E00A44914212D230B457
:10ADE00003E00C78214491420AD24C78052CF8D12A
:10ADF0008C7804F07F0500EB4505E4092B55F0E75E
:10AE000030BC7047704710B5044615F0DDF8204699
:10AE100010BD0000012800D070474FF6FF73994223
:10AE2000FAD110B5054CFF21204615F0C1F8044AAF
:10AE30000449204620F05EFC10BD00BFB472002023
:10AE40000060002007AE0200014B01221A7070471B
:10AE5000809D002030B583B05349544822F050FA09
:10AE6000534822F04DFA0A2022F062FA514B1B7827
:10AE700063BB05220021012011F0D4FF4FF4E13122
:10AE80004D48FBF763FB15F085FB044600254A4857
:10AE9000FBF778FB20BB15F07DFB0023021B63EB67
:10AEA00005031046194641F28732002382428B4146
:10AEB00016DB642015F088FB232018F0DBF9B0FACC
:10AEC00080F14909232018F0B7F9E0E73B4C3849F5
:10AED000204615F052FA3A49204615F04EFAC8E7D6
:10AEE0003849354815F049FA324B1B78002B36D1DA
:10AEF0003549314815F041FA2E4B1B78002B33D1E0
:10AF0000324B1B88324A12883249098800913249F3
:10AF1000294815F032FA274B1B78002B29D12F49ED
:10AF2000254815F02AFA234B1B78002B2DD12549F3
:10AF3000214815F022FA1F4B1B78002B2AD113F061
:10AF400009FB20491C4815F018FA1A4B1B7833BB33
:10AF5000234815F040F8234B187803B030BD194949
:10AF6000164815F00AFAC3E71749144815F005FA10
:10AF7000C6E7164B1B88164A1288164909880091A5
:10AF800015490E4815F0F9F9C9E714490B4815F0B1
:10AF9000F4F9CCE70B49094815F0EFF9CFE7094977
:10AFA000064815F0EAF9D3E7D0FA0400D4FA040011
:10AFB000DCFA040060990020686600208498002074
:10AFC000900F0500E8FA040008FB040090950020AB
:10AFD0006C6200206E62002018FB040030FB04004D
:10AFE000B47200201A61002038B5AA4B1B8813F0F8
:10AFF000010F00D138BDA74A13889BB223F001038B
:10B000009BB21380A449A54822F07AF9A44822F003
:10B0100077F90A2022F08CF9A24B1B78002B6CD117
:10B02000A14B1B78002B72D0A04B1B78002B7BD13F
:10B0300013F0F2FFF2EE047A80EE270A9C4CBCEE8D
:10B04000C00A10EE103A238013F0E6FFDFED997A84
:10B0500080EE270A0221984815F089F92388B3F574
:10B06000917F65D3B3F5CD7F04D9944B1B78002B2A
:10B0700040F08180914B1B78002BBBD0904B93F814
:10B080005930002B00F0DC808B4C204614F0A8FFD8
:10B090000546204614F0A2FF00220146284614F07F
:10B0A00047FE002800F08C80012800F0A180B0F15C
:10B0B000FF3F40F0E0808349834815F05EF9794B0B
:10B0C0001B78002B40F0B7807349744822F018F9C0
:10B0D0007E4822F015F90A2022F02AF9714B1B78DC
:10B0E000002B00F0C8807A4C7849204615F045F9CD
:10B0F0007849204615F041F9BDE0754C6849204675
:10B1000015F03BF97349204615F037F988E7724985
:10B110006D4815F032F9634B1B78002B84D06E49D3
:10B120006B4815F02AF97FE70F2014F01FF97FE72D
:10B13000624B01221A70694C6949204617F04CFD98
:10B14000204617F015FD5449544822F0D9F86548B7
:10B1500022F0D6F80A2022F0EBF8524B1B78002B95
:10B1600088D05B4C5F49204615F007F959492046C5
:10B1700015F003F97EE7514B00221A70574C504BE3
:10B18000D96C204617F028FD204617F0F1FC424903
:10B19000424822F0B5F8544822F0B2F80A2022F0D2
:10B1A000C7F8404B1B78002B3FF464AF484C4E4926
:10B1B000204615F0E2F84749204615F0DEF859E739
:10B1C0003549364822F09CF8484822F099F80A2080
:10B1D00022F0AEF8334B1B78002B4CD03C4C43494B
:10B1E000204615F0CAF83B49204615F0C6F842E063
:10B1F0003F49354815F0C1F82A4B1B78B3B92649A9
:10B20000264822F07DF83B4822F07AF80A2022F006
:10B210008FF8244B1B7873B32D4C3649204615F01C
:10B22000ACF82C49204615F0A8F824E0304928480D
:10B2300015F0A3F8E3E72349254815F09EF843E706
:10B240001D4C204614F0CCFE0546204614F0C6FEE8
:10B250000146284614F070FC00284DD00E490F48D6
:10B2600022F04EF8214822F04BF80A2022F060F834
:10B270000C4B1B781BB9104814F0ADFEBAE6144C09
:10B280001A49204615F079F81249204615F075F84C
:10B29000F1E700BF829D0020D0FA0400D4FA040038
:10B2A000C0F80400609900201A610020809D0020F1
:10B2B000B072002000007A44B4720020BC720020FA
:10B2C0006C6300205CF904006866002070F90400DB
:10B2D00084980020900F0500D0F80400889D00207D
:10B2E00080EE3600E4F8040004F9040024F90400B8
:10B2F00034F9040040F904000B490C4822F000F82E
:10B300000B4821F0FDFF0A2022F012F8094B1B78B0
:10B31000002BB0D0084C0649204615F02EF80749FE
:10B32000204615F02AF8A6E7D0FA0400D4FA040063
:10B3300024F904006099002084980020900F0500F3
:10B340002DE9F04100AF924B1B8813F0400F42D023
:10B350008F4A13889BB223F040039BB213808D4B1E
:10B360001B7813B38C498D4821F0CAFF8C4821F01B
:10B37000C7FF0A2021F0DCFF8A4B1B785BB98A49A2
:10B380008A4814F0FAFF874B1B7823B38649884814
:10B3900014F0F3FF1FE0864C8149204614F0EDFFC6
:10B3A0008449204614F0E9FFE9E77B497B4821F016
:10B3B000A7FF814821F0A4FF0A2021F0B9FF794BB3
:10B3C0001B78B3B97D49794814F0D7FF754B1B78CA
:10B3D000CBB900F039FD6E4B1B8813F0100F17D15D
:10B3E0006B4B1B8813F0080F40F08380BD46BDE80F
:10B3F000F0816F4C7049204614F0BFFF6D49204624
:10B4000014F0BBFFDEE76D49694814F0B6FFE0E7D2
:10B410005F4A13889BB223F010039BB213805E49EE
:10B420005E4821F06DFF664B1B78002B32D06549DA
:10B43000654821F065FF0A2021F07AFF594B1B78FF
:10B4400063B15F4B1B783BB35E4A594C5E49204663
:10B4500014F093FF5749204614F08FFF5B4B93F88D
:10B460005730FBB1594B93F85930DBB1544B1B7833
:10B47000A3B1574A57494D4814F07FFF494B1B78F9
:10B48000BBB14F4B1B785BB1514A5249484814F04D
:10B4900074FF0EE05049CBE74F4AD6E74F4AE9E741
:10B4A0004E4AF2E74E49414814F067FF3D4B1B7886
:10B4B000D3B9434B1B78002B92D14A4A13780133FE
:10B4C000DBB213700A2B8BD1642015F07DF8BFF32B
:10B4D0004F8F4549CA6802F4E062444B1343CB6086
:10B4E000BFF34F8F00BFFDE73D49314814F045FFE2
:10B4F000DFE76E46264A13889BB223F008039BB20F
:10B5000013802549254821F0FBFE394821F0F8FE3B
:10B510000A2021F00DFF234B1B78EBB92B4B93F83E
:10B520005930002B00F0A880324B93F90030324A9A
:10B53000B2F9002031491D4814F01FFF194B1B7848
:10B54000A3B92F4B1A782F49184814F016FF154B42
:10B550001B78B3B9002458E0154C2549204614F057
:10B560000CFF1449204614F008FFD7E7214B93F94C
:10B570000030214AB2F9002020490D4814F0FDFEA8
:10B58000DFE71F4B1A781F49094814F0F6FEE1E780
:10B59000829D00206C9B0020D0FA0400D4FA0400A5
:10B5A000CCF9040060990020E8F9040068660020E6
:10B5B00084980020900F0500F8F904000CFA0400AC
:10B5C000749B0020A0F9040020FA04006C630020A2
:10B5D000BCF9040034FA0400B0F90400C4F9040012
:10B5E0004CFA0400BD72002000ED00E00400FA05F2
:10B5F0005CFA0400709B00206E9B002078FA040027
:10B600006D9B002094FA04000134564B1B78A34232
:10B6100010DD554B1A5D5549554814F0AEFE554B9B
:10B620001B78002BF0D0504B1A5D5049524814F053
:10B63000A4FEE9E751494E4814F09FFE4D4B1B789C
:10B64000ABB9484B1B7803EB4303DA1D02F4FF62EE
:10B65000ADEB020DE8466A46002102F8011B023BF1
:10B66000002B52DB002102F8011B013BF8E74349A4
:10B67000414814F082FEE4E7414B93F90030414A1F
:10B68000B2F9002040493A4814F077FE394B1B7854
:10B6900043B93E49364814F070FE364B1B7863B907
:10B6A000002410E0364B93F90030364AB2F90020FE
:10B6B0003549314814F061FEEBE734492E4814F067
:10B6C0005CFEEDE70134274B1B78A34210DD264BCF
:10B6D0001A5D2649264814F050FE264B1B78002B95
:10B6E000F0D0214B1A5D2149234814F046FEE9E7CA
:10B6F00022491F4814F041FE1E4B1B78002BA0D09E
:10B700001E491D4814F039FE9BE700252C46154BB9
:10B710001B78AB420ADD144B5A5D1D4908EB04004F
:10B7200021F05EFE0334E4B20135F0E719491A480E
:10B7300021F0E6FD4146194821F0E2FD0A2021F002
:10B74000F7FD0C4B1B780BB9B5464FE60A4C424649
:10B750001249204614F011FE0849204614F00DFE4F
:10B76000F2E700BF739B0020789B0020380805009B
:10B77000686600206099002084980020900F0500E2
:10B78000709B00206E9B0020A0FA0400C0FA040009
:10B79000C8FA0400D0FA0400D4FA0400D00F05005F
:10B7A00008B54FF6FF710120FFF734FB08BD00001C
:10B7B0001D4B1B7823B11D4B1B8813F0040F00D1C8
:10B7C000704710B51A491B4821F09AFD1A4821F01C
:10B7D00097FD0A2021F0ACFD184B1B78ABB9134A3A
:10B7E00013889BB223F004039BB2138014480EF01D
:10B7F00072FA002813DD12480EF04CFAC0B213F0B2
:10B800009DFB052014F0E0FEF0E70E4C0A492046AF
:10B8100014F0B3FD0C49204614F0AFFDDFE70A2019
:10B8200013F08CFB10BD00BF809D0020829D002086
:10B83000ACF80400D4FA0400B0F8040060990020C9
:10B840006C98002084980020900F050010B50446E5
:10B85000437843B91A4A136823F00103136003784D
:10B860003BB1012B0CD06378033BDBB2012B0FD92A
:10B8700010BD144B1B68DB69002BF4D09847F2E72E
:10B88000104B1B681B6A002BEDD000799847EAE744
:10B890000B4A136823F00103136023784BB1012B8B
:10B8A000E6D1084B1B681B6A002BE1D02079984732
:10B8B000DEE7044B1B68DB69002BD9D09847D7E73C
:10B8C00058770020E472002008B5037813B1012BEB
:10B8D00010D008BD437833B90F4B1B681B69002B90
:10B8E000F7D09847F5E70C4B1B689B69002BF0D00D
:10B8F0009847EEE74378002BEBD1084B1B78002BE1
:10B90000E7D0064B012283F84820027A83F84920C9
:10B91000427A83F84A20DCE7E47200200C730020AE
:10B92000012800D070474FF6FF739942FAD1034BBC
:10B9300001225A7042F210729A60F3E758730020A5
:10B9400000B587B0324B93F848304BB3304B0022F0
:10B9500083F8482003221A7105225A7193F849206E
:10B960009A7193F84A20DA7101225A7001A9284B82
:10B97000187905F02FFF30B300238DF808300493B9
:10B98000ADF8143003238DF81630224803F08EFAF8
:10B9900002A806F031FB00B1012007B05DF804FBFE
:10B9A0001B4B5B78012B05D0042BDFD1184B0122F8
:10B9B0005A70DBE7164B02221A71B3F846201112B7
:10B9C00059719A71D2E7124B9B7873B98DF8083090
:10B9D000E0238DF80C300E4B1A79ADF814200533A6
:10B9E000049303238DF81630CFE701238DF8083038
:10B9F000E0238DF80C30064B1A79ADF8142005338E
:10BA0000049308238DF8173003238DF81630BCE714
:10BA10000C730020587300204378002B40F01281F3
:10BA2000894B1B782BB18849B1F846200132A1F827
:10BA30004620427B002A00F00581F0B58DB0C27827
:10BA4000E02A17D08DF82920037B8DF828308268F2
:10BA50000021D15483680993B0F90E30ADF82A3033
:10BA6000037C8DF82C30794B1B68DB6809A898475C
:10BA70000DB0F0BD002B48D1037B042B07D0724BD7
:10BA80001B78002BF4D1724803F01EFAF0E78368AC
:10BA90001A78012AF3D15A78012AF0D19A78012A2A
:10BAA000EDD1DB78012BEAD1674B00249C70022793
:10BAB0001F71A3F8464083F8484083F8494083F853
:10BAC0004A4001261E705E700CAD05F8207D2846A8
:10BAD00005F0F8FE9DF814205E4B1A708DF810707A
